{
  "_format": "hh-sol-artifact-1",
  "contractName": "QuantAMMWeightedPool",
  "sourceName": "contracts/QuantAMMWeightedPool.sol",
  "abi": [
    {
      "inputs": [
        {
          "components": [
            {
              "internalType": "string",
              "name": "name",
              "type": "string"
            },
            {
              "internalType": "string",
              "name": "symbol",
              "type": "string"
            },
            {
              "internalType": "uint256",
              "name": "numTokens",
              "type": "uint256"
            },
            {
              "internalType": "string",
              "name": "version",
              "type": "string"
            },
            {
              "internalType": "address",
              "name": "updateWeightRunner",
              "type": "address"
            },
            {
              "internalType": "uint256",
              "name": "poolRegistry",
              "type": "uint256"
            },
            {
              "internalType": "string[][]",
              "name": "poolDetails",
              "type": "string[][]"
            }
          ],
          "internalType": "struct QuantAMMWeightedPool.NewPoolParams",
          "name": "params",
          "type": "tuple"
        },
        {
          "internalType": "contract IVault",
          "name": "vault",
          "type": "address"
        }
      ],
      "stateMutability": "nonpayable",
      "type": "constructor"
    },
    {
      "inputs": [],
      "name": "BaseOutOfBounds",
      "type": "error"
    },
    {
      "inputs": [],
      "name": "ECDSAInvalidSignature",
      "type": "error"
    },
    {
      "inputs": [
        {
          "internalType": "uint256",
          "name": "length",
          "type": "uint256"
        }
      ],
      "name": "ECDSAInvalidSignatureLength",
      "type": "error"
    },
    {
      "inputs": [
        {
          "internalType": "bytes32",
          "name": "s",
          "type": "bytes32"
        }
      ],
      "name": "ECDSAInvalidSignatureS",
      "type": "error"
    },
    {
      "inputs": [
        {
          "internalType": "uint256",
          "name": "deadline",
          "type": "uint256"
        }
      ],
      "name": "ERC2612ExpiredSignature",
      "type": "error"
    },
    {
      "inputs": [
        {
          "internalType": "address",
          "name": "signer",
          "type": "address"
        },
        {
          "internalType": "address",
          "name": "owner",
          "type": "address"
        }
      ],
      "name": "ERC2612InvalidSigner",
      "type": "error"
    },
    {
      "inputs": [],
      "name": "ExponentOutOfBounds",
      "type": "error"
    },
    {
      "inputs": [],
      "name": "InputLengthMismatch",
      "type": "error"
    },
    {
      "inputs": [
        {
          "internalType": "address",
          "name": "account",
          "type": "address"
        },
        {
          "internalType": "uint256",
          "name": "currentNonce",
          "type": "uint256"
        }
      ],
      "name": "InvalidAccountNonce",
      "type": "error"
    },
    {
      "inputs": [],
      "name": "InvalidExponent",
      "type": "error"
    },
    {
      "inputs": [],
      "name": "InvalidInitialization",
      "type": "error"
    },
    {
      "inputs": [],
      "name": "InvalidShortString",
      "type": "error"
    },
    {
      "inputs": [],
      "name": "MaxInRatio",
      "type": "error"
    },
    {
      "inputs": [],
      "name": "MaxOutRatio",
      "type": "error"
    },
    {
      "inputs": [],
      "name": "MinWeight",
      "type": "error"
    },
    {
      "inputs": [],
      "name": "NormalizedWeightInvariant",
      "type": "error"
    },
    {
      "inputs": [],
      "name": "NotInitializing",
      "type": "error"
    },
    {
      "inputs": [
        {
          "internalType": "int256",
          "name": "x",
          "type": "int256"
        }
      ],
      "name": "PRBMathSD59x18__FromIntOverflow",
      "type": "error"
    },
    {
      "inputs": [
        {
          "internalType": "int256",
          "name": "x",
          "type": "int256"
        }
      ],
      "name": "PRBMathSD59x18__FromIntUnderflow",
      "type": "error"
    },
    {
      "inputs": [],
      "name": "ProductOutOfBounds",
      "type": "error"
    },
    {
      "inputs": [
        {
          "internalType": "address",
          "name": "sender",
          "type": "address"
        }
      ],
      "name": "SenderIsNotVault",
      "type": "error"
    },
    {
      "inputs": [
        {
          "internalType": "string",
          "name": "str",
          "type": "string"
        }
      ],
      "name": "StringTooLong",
      "type": "error"
    },
    {
      "inputs": [],
      "name": "WeightedPoolBptRateUnsupported",
      "type": "error"
    },
    {
      "inputs": [],
      "name": "ZeroDivision",
      "type": "error"
    },
    {
      "inputs": [],
      "name": "ZeroInvariant",
      "type": "error"
    },
    {
      "inputs": [],
      "name": "maxTradeSizeRatioExceeded",
      "type": "error"
    },
    {
      "anonymous": false,
      "inputs": [
        {
          "indexed": true,
          "internalType": "address",
          "name": "owner",
          "type": "address"
        },
        {
          "indexed": true,
          "internalType": "address",
          "name": "spender",
          "type": "address"
        },
        {
          "indexed": false,
          "internalType": "uint256",
          "name": "value",
          "type": "uint256"
        }
      ],
      "name": "Approval",
      "type": "event"
    },
    {
      "anonymous": false,
      "inputs": [],
      "name": "EIP712DomainChanged",
      "type": "event"
    },
    {
      "anonymous": false,
      "inputs": [
        {
          "indexed": false,
          "internalType": "uint64",
          "name": "version",
          "type": "uint64"
        }
      ],
      "name": "Initialized",
      "type": "event"
    },
    {
      "anonymous": false,
      "inputs": [
        {
          "indexed": true,
          "internalType": "address",
          "name": "from",
          "type": "address"
        },
        {
          "indexed": true,
          "internalType": "address",
          "name": "to",
          "type": "address"
        },
        {
          "indexed": false,
          "internalType": "uint256",
          "name": "value",
          "type": "uint256"
        }
      ],
      "name": "Transfer",
      "type": "event"
    },
    {
      "anonymous": false,
      "inputs": [
        {
          "indexed": true,
          "internalType": "address",
          "name": "oldAddress",
          "type": "address"
        },
        {
          "indexed": true,
          "internalType": "address",
          "name": "newAddress",
          "type": "address"
        }
      ],
      "name": "UpdateWeightRunnerAddressUpdated",
      "type": "event"
    },
    {
      "anonymous": false,
      "inputs": [
        {
          "indexed": true,
          "internalType": "address",
          "name": "poolAddress",
          "type": "address"
        },
        {
          "indexed": false,
          "internalType": "int256[]",
          "name": "weights",
          "type": "int256[]"
        }
      ],
      "name": "WeightsUpdated",
      "type": "event"
    },
    {
      "inputs": [],
      "name": "DOMAIN_SEPARATOR",
      "outputs": [
        {
          "internalType": "bytes32",
          "name": "",
          "type": "bytes32"
        }
      ],
      "stateMutability": "view",
      "type": "function"
    },
    {
      "inputs": [],
      "name": "PERMIT_TYPEHASH",
      "outputs": [
        {
          "internalType": "bytes32",
          "name": "",
          "type": "bytes32"
        }
      ],
      "stateMutability": "view",
      "type": "function"
    },
    {
      "inputs": [],
      "name": "absoluteWeightGuardRail",
      "outputs": [
        {
          "internalType": "uint64",
          "name": "",
          "type": "uint64"
        }
      ],
      "stateMutability": "view",
      "type": "function"
    },
    {
      "inputs": [
        {
          "internalType": "address",
          "name": "owner",
          "type": "address"
        },
        {
          "internalType": "address",
          "name": "spender",
          "type": "address"
        }
      ],
      "name": "allowance",
      "outputs": [
        {
          "internalType": "uint256",
          "name": "",
          "type": "uint256"
        }
      ],
      "stateMutability": "view",
      "type": "function"
    },
    {
      "inputs": [
        {
          "internalType": "address",
          "name": "spender",
          "type": "address"
        },
        {
          "internalType": "uint256",
          "name": "amount",
          "type": "uint256"
        }
      ],
      "name": "approve",
      "outputs": [
        {
          "internalType": "bool",
          "name": "",
          "type": "bool"
        }
      ],
      "stateMutability": "nonpayable",
      "type": "function"
    },
    {
      "inputs": [
        {
          "internalType": "uint256",
          "name": "",
          "type": "uint256"
        }
      ],
      "name": "assets",
      "outputs": [
        {
          "internalType": "contract IERC20",
          "name": "",
          "type": "address"
        }
      ],
      "stateMutability": "view",
      "type": "function"
    },
    {
      "inputs": [
        {
          "internalType": "address",
          "name": "account",
          "type": "address"
        }
      ],
      "name": "balanceOf",
      "outputs": [
        {
          "internalType": "uint256",
          "name": "",
          "type": "uint256"
        }
      ],
      "stateMutability": "view",
      "type": "function"
    },
    {
      "inputs": [
        {
          "internalType": "uint256[]",
          "name": "balancesLiveScaled18",
          "type": "uint256[]"
        },
        {
          "internalType": "uint256",
          "name": "tokenInIndex",
          "type": "uint256"
        },
        {
          "internalType": "uint256",
          "name": "invariantRatio",
          "type": "uint256"
        }
      ],
      "name": "computeBalance",
      "outputs": [
        {
          "internalType": "uint256",
          "name": "newBalance",
          "type": "uint256"
        }
      ],
      "stateMutability": "view",
      "type": "function"
    },
    {
      "inputs": [
        {
          "internalType": "uint256[]",
          "name": "balancesLiveScaled18",
          "type": "uint256[]"
        },
        {
          "internalType": "enum Rounding",
          "name": "rounding",
          "type": "uint8"
        }
      ],
      "name": "computeInvariant",
      "outputs": [
        {
          "internalType": "uint256",
          "name": "",
          "type": "uint256"
        }
      ],
      "stateMutability": "view",
      "type": "function"
    },
    {
      "inputs": [],
      "name": "decimals",
      "outputs": [
        {
          "internalType": "uint8",
          "name": "",
          "type": "uint8"
        }
      ],
      "stateMutability": "pure",
      "type": "function"
    },
    {
      "inputs": [],
      "name": "eip712Domain",
      "outputs": [
        {
          "internalType": "bytes1",
          "name": "fields",
          "type": "bytes1"
        },
        {
          "internalType": "string",
          "name": "name",
          "type": "string"
        },
        {
          "internalType": "string",
          "name": "version",
          "type": "string"
        },
        {
          "internalType": "uint256",
          "name": "chainId",
          "type": "uint256"
        },
        {
          "internalType": "address",
          "name": "verifyingContract",
          "type": "address"
        },
        {
          "internalType": "bytes32",
          "name": "salt",
          "type": "bytes32"
        },
        {
          "internalType": "uint256[]",
          "name": "extensions",
          "type": "uint256[]"
        }
      ],
      "stateMutability": "view",
      "type": "function"
    },
    {
      "inputs": [
        {
          "internalType": "address",
          "name": "owner",
          "type": "address"
        },
        {
          "internalType": "address",
          "name": "spender",
          "type": "address"
        },
        {
          "internalType": "uint256",
          "name": "amount",
          "type": "uint256"
        }
      ],
      "name": "emitApproval",
      "outputs": [],
      "stateMutability": "nonpayable",
      "type": "function"
    },
    {
      "inputs": [
        {
          "internalType": "address",
          "name": "from",
          "type": "address"
        },
        {
          "internalType": "address",
          "name": "to",
          "type": "address"
        },
        {
          "internalType": "uint256",
          "name": "amount",
          "type": "uint256"
        }
      ],
      "name": "emitTransfer",
      "outputs": [],
      "stateMutability": "nonpayable",
      "type": "function"
    },
    {
      "inputs": [],
      "name": "epsilonMax",
      "outputs": [
        {
          "internalType": "uint64",
          "name": "",
          "type": "uint64"
        }
      ],
      "stateMutability": "view",
      "type": "function"
    },
    {
      "inputs": [],
      "name": "getAggregateFeePercentages",
      "outputs": [
        {
          "internalType": "uint256",
          "name": "aggregateSwapFeePercentage",
          "type": "uint256"
        },
        {
          "internalType": "uint256",
          "name": "aggregateYieldFeePercentage",
          "type": "uint256"
        }
      ],
      "stateMutability": "view",
      "type": "function"
    },
    {
      "inputs": [],
      "name": "getCurrentLiveBalances",
      "outputs": [
        {
          "internalType": "uint256[]",
          "name": "balancesLiveScaled18",
          "type": "uint256[]"
        }
      ],
      "stateMutability": "view",
      "type": "function"
    },
    {
      "inputs": [],
      "name": "getMaximumInvariantRatio",
      "outputs": [
        {
          "internalType": "uint256",
          "name": "",
          "type": "uint256"
        }
      ],
      "stateMutability": "pure",
      "type": "function"
    },
    {
      "inputs": [],
      "name": "getMaximumSwapFeePercentage",
      "outputs": [
        {
          "internalType": "uint256",
          "name": "",
          "type": "uint256"
        }
      ],
      "stateMutability": "pure",
      "type": "function"
    },
    {
      "inputs": [],
      "name": "getMinimumInvariantRatio",
      "outputs": [
        {
          "internalType": "uint256",
          "name": "",
          "type": "uint256"
        }
      ],
      "stateMutability": "pure",
      "type": "function"
    },
    {
      "inputs": [],
      "name": "getMinimumSwapFeePercentage",
      "outputs": [
        {
          "internalType": "uint256",
          "name": "",
          "type": "uint256"
        }
      ],
      "stateMutability": "pure",
      "type": "function"
    },
    {
      "inputs": [],
      "name": "getNormalizedWeights",
      "outputs": [
        {
          "internalType": "uint256[]",
          "name": "",
          "type": "uint256[]"
        }
      ],
      "stateMutability": "view",
      "type": "function"
    },
    {
      "inputs": [],
      "name": "getOracleStalenessThreshold",
      "outputs": [
        {
          "internalType": "uint256",
          "name": "",
          "type": "uint256"
        }
      ],
      "stateMutability": "view",
      "type": "function"
    },
    {
      "inputs": [
        {
          "internalType": "string",
          "name": "category",
          "type": "string"
        },
        {
          "internalType": "string",
          "name": "name",
          "type": "string"
        }
      ],
      "name": "getPoolDetail",
      "outputs": [
        {
          "internalType": "string",
          "name": "",
          "type": "string"
        },
        {
          "internalType": "string",
          "name": "",
          "type": "string"
        }
      ],
      "stateMutability": "view",
      "type": "function"
    },
    {
      "inputs": [],
      "name": "getQuantAMMWeightedPoolDynamicData",
      "outputs": [
        {
          "components": [
            {
              "internalType": "uint256[]",
              "name": "balancesLiveScaled18",
              "type": "uint256[]"
            },
            {
              "internalType": "uint256[]",
              "name": "tokenRates",
              "type": "uint256[]"
            },
            {
              "internalType": "uint256",
              "name": "totalSupply",
              "type": "uint256"
            },
            {
              "internalType": "bool",
              "name": "isPoolInitialized",
              "type": "bool"
            },
            {
              "internalType": "bool",
              "name": "isPoolPaused",
              "type": "bool"
            },
            {
              "internalType": "bool",
              "name": "isPoolInRecoveryMode",
              "type": "bool"
            },
            {
              "internalType": "int256[]",
              "name": "weightsAtLastUpdateInterval",
              "type": "int256[]"
            },
            {
              "internalType": "int256[]",
              "name": "weightBlockMultipliers",
              "type": "int256[]"
            },
            {
              "internalType": "uint40",
              "name": "lastUpdateIntervalTime",
              "type": "uint40"
            },
            {
              "internalType": "uint40",
              "name": "lastInterpolationTimePossible",
              "type": "uint40"
            }
          ],
          "internalType": "struct IQuantAMMWeightedPool.QuantAMMWeightedPoolDynamicData",
          "name": "data",
          "type": "tuple"
        }
      ],
      "stateMutability": "view",
      "type": "function"
    },
    {
      "inputs": [],
      "name": "getQuantAMMWeightedPoolImmutableData",
      "outputs": [
        {
          "components": [
            {
              "internalType": "contract IERC20[]",
              "name": "tokens",
              "type": "address[]"
            },
            {
              "internalType": "uint256",
              "name": "oracleStalenessThreshold",
              "type": "uint256"
            },
            {
              "internalType": "uint256",
              "name": "poolRegistry",
              "type": "uint256"
            },
            {
              "internalType": "int256[][]",
              "name": "ruleParameters",
              "type": "int256[][]"
            },
            {
              "internalType": "uint64[]",
              "name": "lambda",
              "type": "uint64[]"
            },
            {
              "internalType": "uint64",
              "name": "epsilonMax",
              "type": "uint64"
            },
            {
              "internalType": "uint64",
              "name": "absoluteWeightGuardRail",
              "type": "uint64"
            },
            {
              "internalType": "uint256",
              "name": "maxTradeSizeRatio",
              "type": "uint256"
            },
            {
              "internalType": "uint64",
              "name": "updateInterval",
              "type": "uint64"
            }
          ],
          "internalType": "struct IQuantAMMWeightedPool.QuantAMMWeightedPoolImmutableData",
          "name": "data",
          "type": "tuple"
        }
      ],
      "stateMutability": "view",
      "type": "function"
    },
    {
      "inputs": [],
      "name": "getRate",
      "outputs": [
        {
          "internalType": "uint256",
          "name": "",
          "type": "uint256"
        }
      ],
      "stateMutability": "pure",
      "type": "function"
    },
    {
      "inputs": [],
      "name": "getStaticSwapFeePercentage",
      "outputs": [
        {
          "internalType": "uint256",
          "name": "",
          "type": "uint256"
        }
      ],
      "stateMutability": "view",
      "type": "function"
    },
    {
      "inputs": [],
      "name": "getTokenInfo",
      "outputs": [
        {
          "internalType": "contract IERC20[]",
          "name": "tokens",
          "type": "address[]"
        },
        {
          "components": [
            {
              "internalType": "enum TokenType",
              "name": "tokenType",
              "type": "uint8"
            },
            {
              "internalType": "contract IRateProvider",
              "name": "rateProvider",
              "type": "address"
            },
            {
              "internalType": "bool",
              "name": "paysYieldFees",
              "type": "bool"
            }
          ],
          "internalType": "struct TokenInfo[]",
          "name": "tokenInfo",
          "type": "tuple[]"
        },
        {
          "internalType": "uint256[]",
          "name": "balancesRaw",
          "type": "uint256[]"
        },
        {
          "internalType": "uint256[]",
          "name": "lastBalancesLiveScaled18",
          "type": "uint256[]"
        }
      ],
      "stateMutability": "view",
      "type": "function"
    },
    {
      "inputs": [],
      "name": "getTokens",
      "outputs": [
        {
          "internalType": "contract IERC20[]",
          "name": "tokens",
          "type": "address[]"
        }
      ],
      "stateMutability": "view",
      "type": "function"
    },
    {
      "inputs": [],
      "name": "getVault",
      "outputs": [
        {
          "internalType": "contract IVault",
          "name": "",
          "type": "address"
        }
      ],
      "stateMutability": "view",
      "type": "function"
    },
    {
      "inputs": [
        {
          "internalType": "int256[]",
          "name": "_initialWeights",
          "type": "int256[]"
        },
        {
          "components": [
            {
              "internalType": "contract IERC20[]",
              "name": "assets",
              "type": "address[]"
            },
            {
              "internalType": "contract IUpdateRule",
              "name": "rule",
              "type": "address"
            },
            {
              "internalType": "address[][]",
              "name": "oracles",
              "type": "address[][]"
            },
            {
              "internalType": "uint16",
              "name": "updateInterval",
              "type": "uint16"
            },
            {
              "internalType": "uint64[]",
              "name": "lambda",
              "type": "uint64[]"
            },
            {
              "internalType": "uint64",
              "name": "epsilonMax",
              "type": "uint64"
            },
            {
              "internalType": "uint64",
              "name": "absoluteWeightGuardRail",
              "type": "uint64"
            },
            {
              "internalType": "uint64",
              "name": "maxTradeSizeRatio",
              "type": "uint64"
            },
            {
              "internalType": "int256[][]",
              "name": "ruleParameters",
              "type": "int256[][]"
            },
            {
              "internalType": "address",
              "name": "poolManager",
              "type": "address"
            }
          ],
          "internalType": "struct IQuantAMMWeightedPool.PoolSettings",
          "name": "_poolSettings",
          "type": "tuple"
        },
        {
          "internalType": "int256[]",
          "name": "_initialMovingAverages",
          "type": "int256[]"
        },
        {
          "internalType": "int256[]",
          "name": "_initialIntermediateValues",
          "type": "int256[]"
        },
        {
          "internalType": "uint256",
          "name": "_oracleStalenessThreshold",
          "type": "uint256"
        }
      ],
      "name": "initialize",
      "outputs": [],
      "stateMutability": "nonpayable",
      "type": "function"
    },
    {
      "inputs": [
        {
          "internalType": "uint256",
          "name": "",
          "type": "uint256"
        }
      ],
      "name": "lambda",
      "outputs": [
        {
          "internalType": "uint64",
          "name": "",
          "type": "uint64"
        }
      ],
      "stateMutability": "view",
      "type": "function"
    },
    {
      "inputs": [],
      "name": "name",
      "outputs": [
        {
          "internalType": "string",
          "name": "",
          "type": "string"
        }
      ],
      "stateMutability": "view",
      "type": "function"
    },
    {
      "inputs": [
        {
          "internalType": "address",
          "name": "owner",
          "type": "address"
        }
      ],
      "name": "nonces",
      "outputs": [
        {
          "internalType": "uint256",
          "name": "",
          "type": "uint256"
        }
      ],
      "stateMutability": "view",
      "type": "function"
    },
    {
      "inputs": [
        {
          "components": [
            {
              "internalType": "enum SwapKind",
              "name": "kind",
              "type": "uint8"
            },
            {
              "internalType": "uint256",
              "name": "amountGivenScaled18",
              "type": "uint256"
            },
            {
              "internalType": "uint256[]",
              "name": "balancesScaled18",
              "type": "uint256[]"
            },
            {
              "internalType": "uint256",
              "name": "indexIn",
              "type": "uint256"
            },
            {
              "internalType": "uint256",
              "name": "indexOut",
              "type": "uint256"
            },
            {
              "internalType": "address",
              "name": "router",
              "type": "address"
            },
            {
              "internalType": "bytes",
              "name": "userData",
              "type": "bytes"
            }
          ],
          "internalType": "struct PoolSwapParams",
          "name": "request",
          "type": "tuple"
        }
      ],
      "name": "onSwap",
      "outputs": [
        {
          "internalType": "uint256",
          "name": "",
          "type": "uint256"
        }
      ],
      "stateMutability": "view",
      "type": "function"
    },
    {
      "inputs": [
        {
          "internalType": "address",
          "name": "owner",
          "type": "address"
        },
        {
          "internalType": "address",
          "name": "spender",
          "type": "address"
        },
        {
          "internalType": "uint256",
          "name": "amount",
          "type": "uint256"
        },
        {
          "internalType": "uint256",
          "name": "deadline",
          "type": "uint256"
        },
        {
          "internalType": "uint8",
          "name": "v",
          "type": "uint8"
        },
        {
          "internalType": "bytes32",
          "name": "r",
          "type": "bytes32"
        },
        {
          "internalType": "bytes32",
          "name": "s",
          "type": "bytes32"
        }
      ],
      "name": "permit",
      "outputs": [],
      "stateMutability": "nonpayable",
      "type": "function"
    },
    {
      "inputs": [],
      "name": "poolRegistry",
      "outputs": [
        {
          "internalType": "uint256",
          "name": "",
          "type": "uint256"
        }
      ],
      "stateMutability": "view",
      "type": "function"
    },
    {
      "inputs": [],
      "name": "revokePermit",
      "outputs": [],
      "stateMutability": "nonpayable",
      "type": "function"
    },
    {
      "inputs": [
        {
          "internalType": "uint256",
          "name": "",
          "type": "uint256"
        },
        {
          "internalType": "uint256",
          "name": "",
          "type": "uint256"
        }
      ],
      "name": "ruleParameters",
      "outputs": [
        {
          "internalType": "int256",
          "name": "",
          "type": "int256"
        }
      ],
      "stateMutability": "view",
      "type": "function"
    },
    {
      "inputs": [
        {
          "internalType": "address",
          "name": "_updateWeightRunner",
          "type": "address"
        }
      ],
      "name": "setUpdateWeightRunnerAddress",
      "outputs": [],
      "stateMutability": "nonpayable",
      "type": "function"
    },
    {
      "inputs": [
        {
          "internalType": "int256[]",
          "name": "_weights",
          "type": "int256[]"
        },
        {
          "internalType": "address",
          "name": "_poolAddress",
          "type": "address"
        },
        {
          "internalType": "uint40",
          "name": "_lastInterpolationTimePossible",
          "type": "uint40"
        }
      ],
      "name": "setWeights",
      "outputs": [],
      "stateMutability": "nonpayable",
      "type": "function"
    },
    {
      "inputs": [
        {
          "internalType": "bytes4",
          "name": "interfaceId",
          "type": "bytes4"
        }
      ],
      "name": "supportsInterface",
      "outputs": [
        {
          "internalType": "bool",
          "name": "",
          "type": "bool"
        }
      ],
      "stateMutability": "view",
      "type": "function"
    },
    {
      "inputs": [],
      "name": "symbol",
      "outputs": [
        {
          "internalType": "string",
          "name": "",
          "type": "string"
        }
      ],
      "stateMutability": "view",
      "type": "function"
    },
    {
      "inputs": [],
      "name": "totalSupply",
      "outputs": [
        {
          "internalType": "uint256",
          "name": "",
          "type": "uint256"
        }
      ],
      "stateMutability": "view",
      "type": "function"
    },
    {
      "inputs": [
        {
          "internalType": "address",
          "name": "to",
          "type": "address"
        },
        {
          "internalType": "uint256",
          "name": "amount",
          "type": "uint256"
        }
      ],
      "name": "transfer",
      "outputs": [
        {
          "internalType": "bool",
          "name": "",
          "type": "bool"
        }
      ],
      "stateMutability": "nonpayable",
      "type": "function"
    },
    {
      "inputs": [
        {
          "internalType": "address",
          "name": "from",
          "type": "address"
        },
        {
          "internalType": "address",
          "name": "to",
          "type": "address"
        },
        {
          "internalType": "uint256",
          "name": "amount",
          "type": "uint256"
        }
      ],
      "name": "transferFrom",
      "outputs": [
        {
          "internalType": "bool",
          "name": "",
          "type": "bool"
        }
      ],
      "stateMutability": "nonpayable",
      "type": "function"
    },
    {
      "inputs": [],
      "name": "updateInterval",
      "outputs": [
        {
          "internalType": "uint64",
          "name": "",
          "type": "uint64"
        }
      ],
      "stateMutability": "view",
      "type": "function"
    },
    {
      "inputs": [],
      "name": "version",
      "outputs": [
        {
          "internalType": "string",
          "name": "",
          "type": "string"
        }
      ],
      "stateMutability": "view",
      "type": "function"
    }
  ],
  "bytecode": "0x6102006040523461092157617870803803809161001e82610200610c63565b610200396040811261092157610200516001600160401b03811161092157610200019060e08282610200010312610921576040519060e082016001600160401b0381118382101761076b5760405282516001600160401b0381116109215761008d908261020001908501610c86565b825260208301516001600160401b038111610921576100b3908261020001908501610c86565b60208301526040838101519083015260608301516001600160401b038111610921576100e6908261020001908501610c86565b92606083019384526100fa60808201610cdb565b608084015260a0818101519084015260c08101516001600160401b038111610921578261020001601f82840101121561092157808201519061013b82610cef565b936101496040519586610c63565b8285526020850193816102000160208560051b85840101011161092157602083820101945b60208560051b85840101018610610b9b5760c0880187905261022051888a6001600160a01b038316830361092157518151602083015160408051919592919081016001600160401b0381118282101761076b576040526001815260208101603160f81b81526101dc83610d54565b610120526101e982610eb9565b6101405282516020840120918260e05251902080610100524660a0526040519060208201927f8b73c3c69bb8fe3d512ecc4cf759cc79239f7b179b0ffacaa9a75d522b39400f8452604083015260608201524660808201523060a082015260a0815260c0810181811060018060401b0382111761076b576040525190206080523060c0526101608290528051906001600160401b03821161076b5761028f600354610d06565b601f8111610b4d575b50602090601f8311600114610ac6576102c892915f9183610abb575b50508160011b915f199060031b1c19161790565b6003555b83516001600160401b03811161076b576102e7600454610d06565b601f8111610a6d575b506020601f8211600114610a06578190610321939495965f926109fb5750508160011b915f199060031b1c19161790565b6004555b610180528051906001600160401b03821161076b57610345600554610d06565b601f81116109ca575b50602090601f83116001146109435761037d92915f91836109385750508160011b915f199060031b1c19161790565b6005555b6040818101516101a0526080820151600980546001600160a01b0319166001600160a01b0392909216918217905590516360bcf9b160e11b815290602090829060049082905afa90811561092d575f916108ef575b506101c05260a08101516101e052603260c082015151116108aa575f5b60c0820151805182101561047a5760206004918360051b010151510361041b576001016103f3565b60405162461bcd60e51b815260206004820152603160248201527f64657461696c206e6565647320616c6c2034205b63617465676f72792c206e616044820152706d652c20747970652c2064657461696c5d60781b6064820152608490fd5b60c083015180519068010000000000000000821161076b57600654826006558083106107ef575b506020019060065f5260205f205f925b8284106105ff576040516168a79081610fc9823960805181615068015260a05181615134015260c05181615039015260e051816150b7015261010051816150dd01526101205181612e5901526101405181612e820152610160518181816106fe0152818161081c01528181610d1501528181611403015281816117a501528181613187015281816134e901528181613848015281816138b60152818161393601528181613da0015281816146390152614fdb015261018051818181610e2801528181610fb1015281816110a9015281816113200152612f8b01526101a05181818161033801528181612297015281816135db01528181613991015281816139bf01528181613a0201528181613a2a01528181613a5601528181613c0a01528181613c2c0152818161495001526151e401526101c051816105cb01526101e05181818161085901526110360152f35b805180519068010000000000000000821161076b57835482855580831061077f575b5060200190835f5260205f205f925b82841061064d5750505050600160208192019201930192906104b1565b80518051906001600160401b03821161076b5761066a8454610d06565b601f8111610730575b50602090601f83116001146106c457926106aa836001959460209487965f926106b95750508160011b915f199060031b1c19161790565b85555b01920193019290610630565b015190508e806102b4565b90845f5260205f20915f5b601f1985168110610718575083602093600196938796938794601f19811610610700575b505050811b0185556106ad565b01515f1960f88460031b161c191690558d80806106f3565b919260206001819286850151815501940192016106cf565b61075b90855f5260205f20601f850160051c81019160208610610761575b601f0160051c0190610d3e565b8a610673565b909150819061074e565b634e487b7160e01b5f52604160045260245ffd5b845f528260205f2091820191015b81811061079a5750610621565b806107a760019254610d06565b806107b4575b500161078d565b601f811183146107c957505f81555b896107ad565b5f908282526107e6601f60208420920160051c8201858301610d3e565b818355556107c3565b60065f527ff652222313e28459528d920b65115c16c04f3efc82aaedc97be59f3f377c0d3f9081019083015b81811061082857506104a1565b80545f82558061083c575b5060010161081b565b815f5260205f20908101905b8181106108555750610833565b8061086260019254610d06565b8061086f575b5001610848565b601f8111831461088457505f81555b87610868565b5f908282526108a1601f60208420920160051c8201858301610d3e565b8183555561087e565b60405162461bcd60e51b815260206004820152601a60248201527f4c696d69742065786365656473206172726179206c656e6774680000000000006044820152606490fd5b90506020813d602011610925575b8161090a60209383610c63565b810103126109215761091b90610cdb565b826103d6565b5f80fd5b3d91506108fd565b6040513d5f823e3d90fd5b0151905084806102b4565b60055f90815292917f036b6384b5eca791c62761152d0c79bb0604c104a5fb6f4eb0703f3154bb3db0915b601f19841685106109af576001945083601f19811610610997575b505050811b01600555610381565b01515f1960f88460031b161c19169055838080610989565b8181015183556020948501946001909301929091019061096e565b6109f59060055f5260205f20601f850160051c8101916020861061076157601f0160051c0190610d3e565b8361034e565b0151905086806102b4565b60045f5260205f20905f5b601f1984168110610a55575060019394959683601f19811610610a3d575b505050811b01600455610325565b01515f1960f88460031b161c19169055858080610a2f565b9091602060018192858b015181550193019101610a11565b60045f52610ab5907f8a35acfbc15ff81a39ae7d344fd709f28e8600b4aa8c65c6b64bfe7fe36bd19b601f840160051c8101916020851061076157601f0160051c0190610d3e565b856102f0565b0151905087806102b4565b60035f90815292917fc2575a0e9e593c00f959f8c92f12db2869c3395a3b0502d05e2516446f71f85b915b601f1984168510610b32576001945083601f19811610610b1a575b505050811b016003556102cc565b01515f1960f88460031b161c19169055868080610b0c565b81810151835560209485019460019093019290910190610af1565b60035f52610b95907fc2575a0e9e593c00f959f8c92f12db2869c3395a3b0502d05e2516446f71f85b601f850160051c8101916020861061076157601f0160051c0190610d3e565b86610298565b85516001600160401b038111610921578361020001603f828786010101121561092157602081868501010151610bd081610cef565b91610bde6040519384610c63565b81835260208301866102000160408460051b848b8a0101010111610921576040828988010101905b60408460051b848b8a010101018210610c2c57505050908252506020958601950161016e565b81516001600160401b03811161092157602091610c588960408594888f8f610200019401010101610c86565b815201910190610c06565b601f909101601f19168101906001600160401b0382119082101761076b57604052565b81601f82011215610921578051906001600160401b03821161076b5760405192610cba601f8401601f191660200185610c63565b8284526020838301011161092157815f9260208093018386015e8301015290565b51906001600160a01b038216820361092157565b6001600160401b03811161076b5760051b60200190565b90600182811c92168015610d34575b6020831014610d2057565b634e487b7160e01b5f52602260045260245ffd5b91607f1691610d15565b818110610d49575050565b5f8155600101610d3e565b805160209081811015610dca5750601f825111610d8c5780825192015190808310610d7e57501790565b825f19910360031b1b161790565b60448260405192839163305a27a960e01b83528160048401528051918291826024860152018484015e5f828201840152601f01601f19168101030190fd5b919291906001600160401b03821161076b57610de65f54610d06565b601f8111610e92575b5080601f8311600114610e3057508190610e1e93945f92610e255750508160011b915f199060031b1c19161790565b5f5560ff90565b015190505f806102b4565b90601f198316945f8052825f20925f905b878210610e7a575050836001959610610e62575b505050811b015f5560ff90565b01515f1960f88460031b161c191690555f8080610e55565b80600185968294968601518155019501930190610e41565b610eb3905f8052601f835f20910160051c810190601f850160051c01610d3e565b5f610def565b805160209081811015610ee35750601f825111610d8c5780825192015190808310610d7e57501790565b9192916001600160401b03811161076b57600191610f018354610d06565b601f8111610fa1575b5080601f8311600114610f4157508190610f3a9394955f92610e255750508160011b915f199060031b1c19161790565b905560ff90565b90601f19831695845f52825f20925f905b888210610f8a5750508385969710610f72575b505050811b01905560ff90565b01515f1960f88460031b161c191690555f8080610f65565b808785968294968601518155019501930190610f52565b610fc290845f52601f835f20910160051c810190601f850160051c01610d3e565b5f610f0a56fe610160806040526004361015610013575f80fd5b5f905f3560e01c90816301ffc9a714613e805750806306fdde0314613dd7578063095ea7b314613d235780630f6480df14613d06578063132f4264146137b257806316a0b3e01461357157806318160ddd1461355757806323b872dd1461348557806323de665114613454578063273c1adf1461343257806330adf81f146133f8578063313ce567146133dd5780633644e515146133c3578063451a10aa1461334457806354fd4d501461329b5780635687f2b814613247578063654cf15d14613225578063679aefce146131ed57806370a082311461312757806372c981861461303a5780637ecebe001461300257806381fa807c14612f3c57806384b0196e14612e44578063894e71ae146117c95780638d928af8146117855780638ddf01c01461175a57806395d89b411461165d578063979ac70214611634578063984de9e814611474578063a9059cbb14611385578063aa6ca808146112d4578063abb1dc4414611059578063afcff50f1461101e578063b156aa0a14610f65578063b677fa5614610f42578063c0f38e7414610edd578063ce20ece714610ebc578063cf35bdd014610e61578063d335b0cf14610dda578063d505accf14610b85578063d57878981461077b578063dd62ed3e1461068c578063dddd104a146105a5578063e313fe381461053c578063e4e3b535146102b5578063eb296de11461028d578063f89f27ed146102595763fd2c80ae1461022f575f80fd5b34610256578060031936011261025657602067ffffffffffffffff60105416604051908152f35b80fd5b50346102565780600319360112610256576102896102756151e2565b604051918291602083526020830190614151565b0390f35b5034610256578060031936011261025657602067ffffffffffffffff600e5416604051908152f35b50346102565760606003193601126102565760043567ffffffffffffffff8082116105385736602383011215610538578160040135908111610538576024820191602436918360051b0101116105385761030d613f23565b6044359064ffffffffff80831693848403610534576001600160a01b0393846009541633036104f0577f0000000000000000000000000000000000000000000000000000000000000000926001938060011b90808204600214901517156104dc578303610498576008831115610475576103bc6103ae6103a861039961039436888e614184565b615894565b6103b36103ae6103a883614515565b51615474565b614515565b51600755614522565b51600855959291955b4216604051936103d485613fe4565b8185526020809501527fffffffffffffffffffffffffffffffffffffffffffff0000000000000000000069ffffffffff0000000000600a549360281b1692161717600a556040519480602087016020885252604086019692885b82811061046257898688167fcd36f1e14d4a2ed92658d590c16272e0b8022073fd12f22ef20a4d3fd623b3728a8c038ba280f35b843589529781019793810193830161042e565b61048b6103ae61048636868c614184565b615474565b51600755959291956103c5565b606460405162461bcd60e51b815260206004820152600460248201527f574c444c000000000000000000000000000000000000000000000000000000006044820152fd5b60248a634e487b7160e01b81526011600452fd5b606460405162461bcd60e51b815260206004820152600860248201527f4f4e4c59555044570000000000000000000000000000000000000000000000006044820152fd5b8680fd5b8280fd5b503461025657602060031936011261025657600435600d548110156105a157600d6020925267ffffffffffffffff8160021c7fd7b6990105719101dabeb77144f2a3385c8033acd3af97e9423a695e81ad1eb5015460c06040519360061b161c168152f35b5080fd5b5034610256576020600319360112610256576105bf613f0d565b6001600160a01b0390817f000000000000000000000000000000000000000000000000000000000000000016330361064857168082600954827fffffffffffffffffffffffff000000000000000000000000000000000000000082161760095516177fc51fb6cc8e37fb27ff77886c5b33be204bb0a91dc410398c3a9bef63760c0b9d8380a380f35b606460405162461bcd60e51b815260206004820152600960248201527f4f4e4c5941444d494e00000000000000000000000000000000000000000000006044820152fd5b5034610256576040600319360112610256576106a6613f0d565b9060206106b1613f23565b9260646001600160a01b0391828060405197889586947f927da1050000000000000000000000000000000000000000000000000000000086523060048701521660248501521660448301527f0000000000000000000000000000000000000000000000000000000000000000165afa90811561076f5790610738575b602090604051908152f35b506020813d602011610767575b816107526020938361401d565b81010312610763576020905161072d565b5f80fd5b3d9150610745565b604051903d90823e3d90fd5b503461025657806003193601126102565760405190610120820182811067ffffffffffffffff821117610b715760405260608252806020830152806040830152606080830152606060808301528060a08301528060c08301528060e0830152806101008301526040517fca4f280300000000000000000000000000000000000000000000000000000000815230600482015281816024816001600160a01b037f0000000000000000000000000000000000000000000000000000000000000000165afa908115610b66578291610b44575b50825260115460208301527f00000000000000000000000000000000000000000000000000000000000000006040830152600c5461088981614040565b90610897604051928361401d565b808252827fdf6966c971051c3d54ec59162606531493a51404a002842f56009d7e5cf4a8c7602084015b838310610aea57505050506060830152604051908180926020600d54918281520190600d84527fd7b6990105719101dabeb77144f2a3385c8033acd3af97e9423a695e81ad1eb593905b806003830110610a9557610943945490808310610a78575b808310610a58575b808310610a38575b8210610a24575b5050038261401d565b608082015267ffffffffffffffff600e5481811660a084015260401c1660c0820152600f5460e082015267ffffffffffffffff6010541661010082015260405180916020825267ffffffffffffffff6101006109f56109b084516101206020880152610140870190614202565b60208501516040870152604085015160608701526109e0606086015191601f1992838983030160808a015261425c565b906080860151908783030160a08801526142b8565b928260a08201511660c08601528260c08201511660e086015260e0810151828601520151166101208301520390f35b60c01c82526020909101906001015f61093a565b9192602060019167ffffffffffffffff8460801c16815201930191610933565b9192602060019167ffffffffffffffff8460401c1681520193019161092b565b9192602060019167ffffffffffffffff8416815201930191610923565b9160049193506080600191865467ffffffffffffffff8116825267ffffffffffffffff8160401c16602083015267ffffffffffffffff81841c16604083015260c01c606082015201940192018492939161090b565b604051825480825283885260208089209083019189905b808210610b2c5750505060019282610b1e8594602094038261401d565b8152019201920191906108c1565b90919260016020819286548152019401920190610b01565b610b6091503d8084833e610b58818361401d565b810190614e4c565b5f61084c565b6040513d84823e3d90fd5b634e487b7160e01b5f52604160045260245ffd5b50346102565760e060031936011261025657610b9f613f0d565b610ba7613f23565b90604435916064359160843560ff81168103610dd657834211610daa57610be8826001600160a01b03165f52600260205260405f2080549060018201905590565b9060405160208101917f6e71edae12b1b97f4d1f60370fef10105fa2faae0126114a169c64845d6126c983526001600160a01b039687861694856040850152888816606085015289608085015260a084015260c083015260c0825260e082019082821067ffffffffffffffff831117610b71578793610cbe93610cb593604052519020610c7361502f565b90604051917f190100000000000000000000000000000000000000000000000000000000000083526002830152602282015260c43591604260a4359220615ddc565b90929192615e5e565b16818103610d7c576040517fe1f21c670000000000000000000000000000000000000000000000000000000081526001600160a01b03848116600483015285166024820152604481018790528790602081606481857f00000000000000000000000000000000000000000000000000000000000000008c165af18015610b6657610d46575080f35b6020813d602011610d74575b81610d5f6020938361401d565b810103126105a157610d709061432d565b5080f35b3d9150610d52565b7f4b800e46000000000000000000000000000000000000000000000000000000008752600452602452604485fd5b602486857f62791302000000000000000000000000000000000000000000000000000000008252600452fd5b8580fd5b5034610256578060031936011261025657604051907fb45090f90000000000000000000000000000000000000000000000000000000082523060048301526020826024816001600160a01b037f0000000000000000000000000000000000000000000000000000000000000000165afa90811561076f579061073857602090604051908152f35b503461025657602060031936011261025657600435906012548210156102565760206001600160a01b038360125f527fbb8a6a4669ba250d26cd7a459eca9d215f8307e33aebe50379bc5a3617ec3444015416604051908152f35b503461025657806003193601126102565760206040516509184e72a0008152f35b50346102565760406003193601126102565760043560243590600c5481101561053857600c5f527fdf6966c971051c3d54ec59162606531493a51404a002842f56009d7e5cf4a8c701805482101561053857602092505f52815f200154604051908152f35b503461025657806003193601126102565760206040516709b6e64a8ec600008152f35b50346102565780600319360112610256576040517f535cfd8a00000000000000000000000000000000000000000000000000000000815230600482015281816024816001600160a01b037f0000000000000000000000000000000000000000000000000000000000000000165afa908115610b6657826102899392610ffb575b5050604051918291602083526020830190614151565b61101792503d8091833e61100f818361401d565b81019061439b565b5f80610fe5565b503461025657806003193601126102565760206040517f00000000000000000000000000000000000000000000000000000000000000008152f35b50346102565780600319360112610256576001600160a01b03604051917f67e0e07600000000000000000000000000000000000000000000000000000000835230600484015260248184602481867f0000000000000000000000000000000000000000000000000000000000000000165afa91821561076f578093819582938395611178575b50506110f660405195608087526080870190614202565b9060209086830382880152818089519485815201980193905b83821061113c5787806102898961112e8d8b8582036040870152614151565b908382036060850152614151565b909192939783606060019260408c5180516111568161423e565b835280850151871685840152015115156040820152019901949392019061110f565b95509550925090503d8082863e61118f818661401d565b8401906080858303126102565784519167ffffffffffffffff9283811161053857816111bc918801614ddb565b926020808801518281116112d057880183601f820112156112d0578051916111e383614040565b986111f16040519a8b61401d565b838a52818a0190826060809602850101938785116112cc578301915b84831061125a575050505050506040870151818111611256578261123291890161433a565b9660608101519182116112565761124a92910161433a565b91939491925f806110df565b8380fd5b85838903126112cc57604051868101818110898211176112b957604052835160028110156112b5578152848401518c811681036112b55785820152869185916112a56040870161432d565b604082015281520192019161120d565b8a80fd5b83634e487b7160e01b5f5260416004525ffd5b8880fd5b8480fd5b50346102565780600319360112610256576040517fca4f280300000000000000000000000000000000000000000000000000000000815230600482015281816024816001600160a01b037f0000000000000000000000000000000000000000000000000000000000000000165afa908115610b665782610289939261136a575b5050604051918291602083526020830190614202565b61137e92503d8091833e610b58818361401d565b5f80611354565b5034610256576040600319360112610256576113f660206113a4613f0d565b6040517fbeabacc80000000000000000000000000000000000000000000000000000000081523360048201526001600160a01b0390911660248083019190915235604482015291829081906064820190565b0381856001600160a01b037f0000000000000000000000000000000000000000000000000000000000000000165af18015610b665761143b575b602060405160018152f35b6020813d60201161146c575b816114546020938361401d565b810103126105a157611466915061432d565b5f611430565b3d9150611447565b50346102565760406003193601126102565760043567ffffffffffffffff81116105a1576114a6903690600401614058565b90602435906002821015610256576114bd8261423e565b5061162d5760045b6114cd6151e2565b90806003146115d9578060041461155557806001146115155760021461150157634e487b7160e01b5f52605160045260245ffd5b60209161150d91615f09565b604051908152f35b50670de0b6b3a7640000908181029181830414901517156115415760209161153c9161515a565b61150d565b634e487b7160e01b5f52601160045260245ffd5b505f9190670de0b6b3a76400005b815184101561159f5761159760019161159161157f87876145b4565b5161158a88876145b4565b5190615a31565b90615abc565b930192611563565b9250505080156115b15760209061150d565b7f26543689000000000000000000000000000000000000000000000000000000005f5260045ffd5b505f9190670de0b6b3a76400005b815184101561159f57670de0b6b3a764000061162460019261161e61160c88886145b4565b5161161789886145b4565b5190615cce565b90614db2565b049301926115e7565b60036114c5565b5034610256578060031936011261025657335f9081526002602052604090208054600101905580f35b50346102565780600319360112610256576040516004545f8261167f836142f5565b91828252602093600190856001821691825f1461171c5750506001146116c1575b506116ad9250038361401d565b610289604051928284938452830190613ee8565b84915060045f527f8a35acfbc15ff81a39ae7d344fd709f28e8600b4aa8c65c6b64bfe7fe36bd19b905f915b8583106117045750506116ad9350820101856116a0565b805483890185015287945086939092019181016116ed565b7fffffffffffffffffffffffffffffffffffffffffffffffffffffffffffffff0016858201526116ad95151560051b85010192508791506116a09050565b5034610256578060031936011261025657602067ffffffffffffffff600e5460401c16604051908152f35b503461025657806003193601126102565760206040516001600160a01b037f0000000000000000000000000000000000000000000000000000000000000000168152f35b50346107635760a06003193601126107635760043567ffffffffffffffff8111610763576117fb9036906004016141d2565b9067ffffffffffffffff602435116107635761014060031960243536030112610763576040519061182b82613fb3565b6024356004013567ffffffffffffffff811161076357366023826024350101121561076357611861600482602435010135614040565b9061186f604051928361401d565b600460248035830191820135808552602085019360059190911b90920101903682116107635760249081350101915b818310612e245750505082526024803501356001600160a01b03811681036107635760208301526044602435013567ffffffffffffffff811161076357366023826024350101121561076357600481602435010135906118fd82614040565b9161190b604051938461401d565b80835260208301903660248260051b858235010101116107635760248381350101915b60248260051b8582350101018310612d78575050505060408301526064602435013561ffff811681036107635760608301526084602435013567ffffffffffffffff81116107635736602382602435010112156107635760048160243501013561199781614040565b916119a5604051938461401d565b81835260208301903660248460051b83823501010111610763579060248281350101915b60248460051b8282350101018310612d5c575050505060808301526119f260a4602435016141ed565b60a0830152611a0560c4602435016141ed565b60c0830152611a1860e4602435016141ed565b60e0830152610104602435013567ffffffffffffffff811161076357366023826024350101121561076357611a54600482602435010135614040565b90611a62604051928361401d565b6004602480358301918201358085526020850193923660059290921b01909101116107635760248181350101915b602480358301600481013560051b01018310612d2957505050610100830152611abe61012460243501613f39565b61012083015260443567ffffffffffffffff811161076357611ae49036906004016141d2565b9060643567ffffffffffffffff811161076357611b059036906004016141d2565b907ff0c57e16840df040f15088dc2f81fe391c3923bec73e23a9662efc9c229c6a005467ffffffffffffffff81161580612d1b575b600167ffffffffffffffff8316149081612d11575b159081612d08575b50612ce05760017fffffffffffffffffffffffffffffffffffffffffffffffff00000000000000008216177ff0c57e16840df040f15088dc2f81fe391c3923bec73e23a9662efc9c229c6a005560ff8160401c1615612c8b575b8451518015159081612c80575b5015612c3c57845180519067ffffffffffffffff8211610b7157680100000000000000008211610b715760209060125483601255808410612c06575b500160125f525f5b828110612bc957505050845151601f19611c34611c1e83614040565b92611c2c604051948561401d565b808452614040565b0136602083013780519067ffffffffffffffff8211610b7157680100000000000000008211610b7157602090600b5483600b55808410612b93575b5001600b5f525f5b828110612b56575050505f5b85518051821015611d1957611ca0826001600160a01b03926145b4565b511690600b54811015611d0557600191600b5f52817f0175b7a638427703f0dbe7bb9bbf987a2551717b34e79f33b5b1008d1fa01db901907fffffffffffffffffffffffff000000000000000000000000000000000000000082541617905501611c83565b634e487b7160e01b5f52603260045260245ffd5b5050858560843560115561ffff6060820151167fffffffffffffffffffffffffffffffffffffffffffffffff000000000000000060105416176010556001600160a01b0360208201511615612b12575f5b60808201518051821015611dfb57611d8b8267ffffffffffffffff926145b4565b51165f81139081611de9575b5015611da557600101611d6a565b606460405162461bcd60e51b815260206004820152600660248201527f494e564c414d00000000000000000000000000000000000000000000000000006044820152fd5b670de0b6b3a764000091501288611d97565b5050858560808301515160018114908115612b07575b5015612ac35767ffffffffffffffff60a0840151165f81139081612ab0575b5015612a6c5767ffffffffffffffff60c08401511684518015612a5857670de0b6b3a7640000051380612a39575b156129f557604083015151156129b1576001600160a01b036020840151166101008401519060405180927f0df61b8f000000000000000000000000000000000000000000000000000000008252602482016020600484015281518091526044830190602060448260051b8601019301915f905b828210612966575050505091818060209403915afa908115612616575f9161292c575b50156128e85767ffffffffffffffff60e08401511680151590816128d5575b501561289157608083015180519067ffffffffffffffff8211610b7157680100000000000000008211610b7157602090600d5483600d5580841061280b575b500190600d5f525f5b8160021c81106127a557506003198116808203612726575b50505067ffffffffffffffff60a084015116600e54907fffffffffffffffffffffffffffffffff000000000000000000000000000000006fffffffffffffffff000000000000000060c087015160401b1692161717600e5567ffffffffffffffff60e084015116600f55610100830151805190680100000000000000008211610b7157600c5482600c558083106126b7575b5060200190600c5f527fdf6966c971051c3d54ec59162606531493a51404a002842f56009d7e5cf4a8c7915f905b82821061262157505050506001600160a01b0360208401511690845191803b15610763576120a55f6120b7958195604051978896879586947f44a01eb3000000000000000000000000000000000000000000000000000000008652306004870152608060248701526084860190615164565b90600319858303016044860152615164565b90606483015203925af1801561261657612603575b506001600160a01b0360095416803b156112d057908491604051917f727cc6b60000000000000000000000000000000000000000000000000000000083526020600484015261212981516101406024860152610164850190614202565b6001600160a01b0360208301511660448501526040820151907fffffffffffffffffffffffffffffffffffffffffffffffffffffffffffffffdc858203016064860152815180825260208201916020808360051b83010194019288915b83831061259857505050505091838581846001600160a01b036101206122606121ed869a61ffff6060889c015116608488015260808601517fffffffffffffffffffffffffffffffffffffffffffffffffffffffffffffffdc8883030160a48901526142b8565b67ffffffffffffffff60a08601511660c487015267ffffffffffffffff60c08601511660e487015267ffffffffffffffff60e0860151166101048701526101008501517fffffffffffffffffffffffffffffffffffffffffffffffffffffffffffffffdc8783030161012488015261425c565b9201511661014483015203925af18015610b6657612584575b505061228760075415615197565b61229360085415615197565b80517f00000000000000000000000000000000000000000000000000000000000000000361255c57829080518060011b9080820460021490151715612548576122db906144d7565b91849067ffffffffffffffff600e5460401c16905b835183101561239f578161230484866145b4565b51126123775761231483856145b4565b5161231f84876145b4565b5261232a83856145b4565b519087828201928312911290801582169115161761236357600190928761235b6123558751846145c8565b886145b4565b5201916122f0565b602487634e487b7160e01b81526011600452fd5b6004877fbd393583000000000000000000000000000000000000000000000000000000008152fd5b868685670de0b6b3a76400008894036125205783600860ff949551115f1461250b576103ae6103a86103996123d393615894565b516008555b64ffffffffff42168060206040516123ef81613fe4565b8281520152600a54907fffffffffffffffffffffffffffffffffffffffffffff0000000000000000000069ffffffffff00000000004260281b1692161717600a557fcd36f1e14d4a2ed92658d590c16272e0b8022073fd12f22ef20a4d3fd623b372604051602081528061246830946020830190615164565b0390a260401c16156124775780f35b7fffffffffffffffffffffffffffffffffffffffffffffff00ffffffffffffffff7ff0c57e16840df040f15088dc2f81fe391c3923bec73e23a9662efc9c229c6a0054167ff0c57e16840df040f15088dc2f81fe391c3923bec73e23a9662efc9c229c6a00557fc7f505b2f371ae2175ee4913f4499e1f2633a7b5936321eed1cdaeb6115181d2602060405160018152a180f35b6103ae61251791615474565b516007556123d8565b6004837f39cf114e000000000000000000000000000000000000000000000000000000008152fd5b602485634e487b7160e01b81526011600452fd5b6004837faaad13f7000000000000000000000000000000000000000000000000000000008152fd5b61258d90613fd0565b610538578284612279565b919395969798509193601f19828203018352855190602080835192838152019201908d905b8082106125e25750505060208060019297019301930190928b98979695949293612186565b9091926020806001926001600160a01b0387511681520194019201906125bd565b61260e919450613fd0565b5f92846120cc565b6040513d5f823e3d90fd5b805180519067ffffffffffffffff8211610b7157680100000000000000008211610b71578554828755808310612690575b50602001855f5260205f205f5b83811061267c575050505060016020819201940191019092612033565b60019060208451940193818401550161265f565b865f5260205f20908382015b81830181106126ac575050612652565b5f815560010161269c565b7fdf6966c971051c3d54ec59162606531493a51404a002842f56009d7e5cf4a8c7908382015b81830181106126ed575050612005565b80545f825580612701575b506001016126dd565b815f5260205f2090815b818301811061271b5750506126f8565b5f815560010161270b565b915f925f5b81840381106127655750505060021c7fd7b6990105719101dabeb77144f2a3385c8033acd3af97e9423a695e81ad1eb50155868080611f73565b909193602061279b60019267ffffffffffffffff885116908560031b60031b9167ffffffffffffffff809116831b921b19161790565b950192910161272b565b5f805b600481106127dd57507fd7b6990105719101dabeb77144f2a3385c8033acd3af97e9423a695e81ad1eb5820155600101611f5b565b845190949160019160209167ffffffffffffffff600689901b81811b199092169216901b17920194016127a8565b612854906003850160021c60037fd7b6990105719101dabeb77144f2a3385c8033acd3af97e9423a695e81ad1eb592601888831b168061285a575b500160021c82019101614dc5565b89611f52565b7fd7b6990105719101dabeb77144f2a3385c8033acd3af97e9423a695e81ad1eb48401905f198254918a03851b1c1690558e612846565b606460405162461bcd60e51b815260206004820152600b60248201527f494e564d415854524144450000000000000000000000000000000000000000006044820152fd5b670429d069189e00009150111587611f13565b606460405162461bcd60e51b815260206004820152600960248201527f494e56524c4550524d00000000000000000000000000000000000000000000006044820152fd5b90506020813d60201161295e575b816129476020938361401d565b81010312610763576129589061432d565b87611ef4565b3d915061293a565b919360206129a1827fffffffffffffffffffffffffffffffffffffffffffffffffffffffffffffffbc60019597998495030186528851613f80565b9601920192018694939192611ed1565b606460405162461bcd60e51b815260206004820152600960248201527f4e4f50524f564f524300000000000000000000000000000000000000000000006044820152fd5b606460405162461bcd60e51b815260206004820152600a60248201527f494e565f414253574754000000000000000000000000000000000000000000006044820152fd5b50662386f26fc1000067ffffffffffffffff60c0850151161215611e5e565b634e487b7160e01b5f52601260045260245ffd5b606460405162461bcd60e51b815260206004820152600860248201527f494e565f45504d580000000000000000000000000000000000000000000000006044820152fd5b670de0b6b3a76400009150131587611e30565b606460405162461bcd60e51b815260206004820152601760248201527f456974686572207363616c6172206f7220766563746f720000000000000000006044820152fd5b905084511487611e11565b606460405162461bcd60e51b815260206004820152600c60248201527f496e76616c69642072756c6500000000000000000000000000000000000000006044820152fd5b60019060206001600160a01b03845116930192817f0175b7a638427703f0dbe7bb9bbf987a2551717b34e79f33b5b1008d1fa01db9015501611c77565b612bc390847f0175b7a638427703f0dbe7bb9bbf987a2551717b34e79f33b5b1008d1fa01db99182019101614dc5565b5f611c6f565b60019060206001600160a01b03845116930192817fbb8a6a4669ba250d26cd7a459eca9d215f8307e33aebe50379bc5a3617ec3444015501611c02565b612c3690847fbb8a6a4669ba250d26cd7a459eca9d215f8307e33aebe50379bc5a3617ec34449182019101614dc5565b5f611bfa565b606460405162461bcd60e51b815260206004820152600a60248201527f494e5641535357454947000000000000000000000000000000000000000000006044820152fd5b90508651145f611bbe565b680100000000000000017fffffffffffffffffffffffffffffffffffffffffffffff0000000000000000008216177ff0c57e16840df040f15088dc2f81fe391c3923bec73e23a9662efc9c229c6a0055611bb1565b7ff92ee8a9000000000000000000000000000000000000000000000000000000005f5260045ffd5b9050155f611b57565b303b159150611b4f565b5060ff8160401c1615611b3a565b823567ffffffffffffffff811161076357602091612d518392602436918782350101016141d2565b815201920191611a90565b602080602493612d6b866141ed565b81520193019291506119c9565b823567ffffffffffffffff811161076357366043828760243501010112156107635760248186823501010135612dad81614040565b91612dbb604051938461401d565b81835260208301903660448460051b838b60243501010101116107635760448189602435010101915b60448460051b838b602435010101018310612e0c57505050908252506020928301920161192e565b60208091612e1985613f39565b815201920191612de4565b82356001600160a01b03811681036107635781526020928301920161189e565b34610763575f60031936011261076357612e7d7f0000000000000000000000000000000000000000000000000000000000000000615ade565b612ea67f0000000000000000000000000000000000000000000000000000000000000000615c10565b9060405191602083019280841067ffffffffffffffff851117610b7157612f1c61028992612f0e956040525f83526040519586957f0f00000000000000000000000000000000000000000000000000000000000000875260e0602088015260e0870190613ee8565b908582036040870152613ee8565b904660608501523060808501525f60a085015283820360c0850152614151565b34610763575f600319360112610763576040517ff29486a10000000000000000000000000000000000000000000000000000000081523060048201526101a09081816024816001600160a01b037f0000000000000000000000000000000000000000000000000000000000000000165afa908115612616576040925f92612fd5575b505060608282015191015182519182526020820152f35b612ff49250803d10612ffb575b612fec818361401d565b8101906143c1565b8280612fbe565b503d612fe2565b34610763576020600319360112610763576001600160a01b03613023613f0d565b165f526002602052602060405f2054604051908152f35b3461076357600319602081360112610763576004359067ffffffffffffffff908183116107635760e0908336030112610763576040519160e0830183811083821117610b715760405280600401356002811015610763578352602481013560208401526044810135828111610763576130b99060043691840101614058565b604084015260648101356060840152608481013560808401526130de60a48201613f39565b60a084015260c48101359182116107635701366023820112156107635760209161311561150d9236906024600482013591016140ed565b60c0820152613122614fd1565b614944565b346107635760208060031936011261076357604481613144613f0d565b6040517ff7888aec0000000000000000000000000000000000000000000000000000000081523060048201526001600160a01b03918216602482015292839182907f0000000000000000000000000000000000000000000000000000000000000000165afa908115612616575f916131c0575b50604051908152f35b90508181813d83116131e6575b6131d7818361401d565b810103126107635751826131b7565b503d6131cd565b34610763575f600319360112610763577f18e79a20000000000000000000000000000000000000000000000000000000005f5260045ffd5b34610763575f60031936011261076357602060405167016345785d8a00008152f35b346107635760207f8c5be1e5ebec7d5bd14f71427d1e84f3dd0314c0f7b2291e5b200ac8c7c3b925613278366140b8565b92919390613284614fd1565b6001600160a01b03809160405195865216941692a3005b34610763575f600319360112610763576040516005545f826132bc836142f5565b91828252602093600190856001821691825f1461171c5750506001146132e957506116ad9250038361401d565b84915060055f527f036b6384b5eca791c62761152d0c79bb0604c104a5fb6f4eb0703f3154bb3db0905f915b85831061332c5750506116ad9350820101856116a0565b80548389018501528794508693909201918101613315565b346107635760406003193601126107635767ffffffffffffffff60043581811161076357613376903690600401614133565b6024359182116107635761339e610289916133986133b5943690600401614133565b9061469b565b604092919251938493604085526040850190613ee8565b908382036020850152613ee8565b34610763575f60031936011261076357602061150d61502f565b34610763575f60031936011261076357602060405160128152f35b34610763575f6003193601126107635760206040517f6e71edae12b1b97f4d1f60370fef10105fa2faae0126114a169c64845d6126c98152f35b34610763575f6003193601126107635760206040516729a2241af62c00008152f35b346107635760207fddf252ad1be2c89b69c2b068fc378daa952ba7f163c4a11628f55a4df523b3ef613278366140b8565b346107635760846020613497366140b8565b6040517f15dacbea0000000000000000000000000000000000000000000000000000000081523360048201526001600160a01b0393841660248201529183166044830152606482015292839182905f907f0000000000000000000000000000000000000000000000000000000000000000165af180156126165761352057602060405160018152f35b6020813d60201161354f575b816135396020938361401d565b810103126107635761354a9061432d565b611430565b3d915061352c565b34610763575f60031936011261076357602061150d6145fd565b346107635760606003193601126107635760043567ffffffffffffffff8111610763576135a2903690600401614058565b602435906044359164ffffffffff80421691600a5491808360281c16804210156137a8575b506135d68261360595966145b4565b5194817f0000000000000000000000000000000000000000000000000000000000000000941690031690614f63565b60019190828411156137a25760025b8060031461373157806004146136c357806001146136985760021461364757634e487b7160e01b5f52605160045260245ffd5b80156136705760209361150d93611591926ec097ce7bc90715b34b9f0fffffffff040190615a31565b7f0a0c22c7000000000000000000000000000000000000000000000000000000005f5260045ffd5b508093925015612a585761159161150d926020946ec097ce7bc90715b34b9f10000000000490615a31565b50670de0b6b3a764000093925f91815b6136f1575b50505082156115b15761159161150d9260209490615a31565b909194670de0b6b3a76400005186101561372b57908261372381936115916137198a866145b4565b5161158a8b614593565b9601926136d3565b946136d8565b50670de0b6b3a764000093925f91815b61375e5750505082156115b15761159161150d9260209490615a31565b909194670de0b6b3a76400005186101561372b579082670de0b6b3a7640000613799829461161e61378f8b876145b4565b516116178c614593565b04960192613741565b82613614565b93506135d66135c7565b34610763575f600319360112610763576040516137ce81613fb3565b60608152606060208201525f60408201525f60608201525f60808201525f60a0820152606060c0820152606060e08201525f6101008201525f6101208201526040517f535cfd8a0000000000000000000000000000000000000000000000000000000081523060048201525f816024816001600160a01b037f0000000000000000000000000000000000000000000000000000000000000000165afa908115612616575f91613cec575b5081526040517f7e361bde0000000000000000000000000000000000000000000000000000000081523060048201525f816024816001600160a01b037f0000000000000000000000000000000000000000000000000000000000000000165afa908115612616575f91613c8f575b5060208201526138f46145fd565b60408201526040517ff29486a10000000000000000000000000000000000000000000000000000000081523060048201526101a0816024816001600160a01b037f0000000000000000000000000000000000000000000000000000000000000000165afa801561261657610120915f91613c6e575b5060e081015115156060840152610100810151151560808401520151151560a08201526139b57f00000000000000000000000000000000000000000000000000000000000000006144d7565b60c08201526139e37f00000000000000000000000000000000000000000000000000000000000000006144d7565b60e08201526139f3600754614e8b565b6139fe600854614e8b565b60047f0000000000000000000000000000000000000000000000000000000000000000108015613c66577f0000000000000000000000000000000000000000000000000000000000000000905b15613c05575f5b5f5b7f00000000000000000000000000000000000000000000000000000000000000008110613b5d578564ffffffffff6020613a8c6145d5565b8281511661010085015201511661012082015260405180916020825264ffffffffff610120613b43613acc84516101406020880152610160870190613f4d565b613b2d613aeb602087015192601f1993848a83030160408b0152613f4d565b604087015160608901526060870151151560808901526080870151151560a089015260a0870151151560c089015260c0870151838983030160e08a0152613f80565b9060e08601519087830301610100880152613f80565b928261010082015116828601520151166101408301520390f35b6004811015613bad5780613b73600192876145b4565b51613b828260c08a01516145b4565b52613b96613b9085836145c8565b876145b4565b51613ba58260e08a01516145b4565b525b01613a54565b806003198101116115415780613bc960031960019301866145b4565b51613bd88260c08a01516145b4565b52613bf0613bea8460031984016145c8565b866145b4565b51613bff8260e08a01516145b4565b52613ba7565b6003197f0000000000000000000000000000000000000000000000000000000000000000017f0000000000000000000000000000000000000000000000000000000000000000811115613a5257634e487b7160e01b5f52601160045260245ffd5b600490613a4b565b613c8991506101a03d6101a011612ffb57612fec818361401d565b83613969565b90503d805f833e613ca0818361401d565b8101906040818303126107635780519167ffffffffffffffff928381116107635781613ccd91840161433a565b92602083015190811161076357613ce4920161433a565b9050826138e6565b613d0091503d805f833e61100f818361401d565b82613878565b34610763575f600319360112610763576020601154604051908152f35b3461076357604060031936011261076357613d936020613d41613f0d565b6040517fe1f21c670000000000000000000000000000000000000000000000000000000081523360048201526001600160a01b0390911660248083019190915235604482015291829081906064820190565b03815f6001600160a01b037f0000000000000000000000000000000000000000000000000000000000000000165af180156126165761352057602060405160018152f35b34610763575f600319360112610763576040516003545f82613df8836142f5565b91828252602093600190856001821691825f1461171c575050600114613e2557506116ad9250038361401d565b84915060035f527fc2575a0e9e593c00f959f8c92f12db2869c3395a3b0502d05e2516446f71f85b905f915b858310613e685750506116ad9350820101856116a0565b80548389018501528794508693909201918101613e51565b3461076357602060031936011261076357600435907fffffffff000000000000000000000000000000000000000000000000000000008216809203610763577f01ffc9a700000000000000000000000000000000000000000000000000000000602092148152f35b90601f19601f602080948051918291828752018686015e5f8582860101520116010190565b600435906001600160a01b038216820361076357565b602435906001600160a01b038216820361076357565b35906001600160a01b038216820361076357565b9081518082526020808093019301915f5b828110613f6c575050505090565b835185529381019392810192600101613f5e565b9081518082526020808093019301915f5b828110613f9f575050505090565b835185529381019392810192600101613f91565b610140810190811067ffffffffffffffff821117610b7157604052565b67ffffffffffffffff8111610b7157604052565b6040810190811067ffffffffffffffff821117610b7157604052565b610120810190811067ffffffffffffffff821117610b7157604052565b90601f601f19910116810190811067ffffffffffffffff821117610b7157604052565b67ffffffffffffffff8111610b715760051b60200190565b9080601f8301121561076357602090823561407281614040565b93614080604051958661401d565b81855260208086019260051b82010192831161076357602001905b8282106140a9575050505090565b8135815290830190830161409b565b6003196060910112610763576001600160a01b0390600435828116810361076357916024359081168103610763579060443590565b92919267ffffffffffffffff8211610b7157604051916141176020601f19601f840116018461401d565b829481845281830111610763578281602093845f960137010152565b9080601f830112156107635781602061414e933591016140ed565b90565b9081518082526020808093019301915f5b828110614170575050505090565b835185529381019392810192600101614162565b929161418f82614040565b9161419d604051938461401d565b829481845260208094019160051b810192831161076357905b8282106141c35750505050565b813581529083019083016141b6565b9080601f830112156107635781602061414e93359101614184565b359067ffffffffffffffff8216820361076357565b9081518082526020808093019301915f5b828110614221575050505090565b83516001600160a01b031685529381019392810192600101614213565b6002111561424857565b634e487b7160e01b5f52602160045260245ffd5b90808251908181526020809101926020808460051b8301019501935f915b84831061428a5750505050505090565b90919293949584806142a883601f1986600196030187528a51613f80565b980193019301919493929061427a565b9081518082526020808093019301915f5b8281106142d7575050505090565b835167ffffffffffffffff16855293810193928101926001016142c9565b90600182811c92168015614323575b602083101461430f57565b634e487b7160e01b5f52602260045260245ffd5b91607f1691614304565b5190811515820361076357565b9080601f830112156107635781519060209161435581614040565b93614363604051958661401d565b81855260208086019260051b82010192831161076357602001905b82821061438c575050505090565b8151815290830190830161437e565b9060208282031261076357815167ffffffffffffffff81116107635761414e920161433a565b809103906101a0821261076357604060808151936143de85613fb3565b126107635780516080810181811067ffffffffffffffff821117610b715782526144078361432d565b81526144156020840161432d565b602082015261442582840161432d565b828201526144356060840161432d565b606082015283526080820151602084015260a08201519083015260c0810151606083015260e081015164ffffffffff81168103610763576080830152610100908181015163ffffffff81168103610763576144d0916101809160a0860152610120936144a285830161432d565b60c08701526144b4610140830161432d565b60e08701526144c6610160830161432d565b908601520161432d565b9082015290565b906144e182614040565b6144ee604051918261401d565b828152601f196144fe8294614040565b0190602036910137565b9190820391821161154157565b805115611d055760200190565b805160011015611d055760400190565b805160021015611d055760600190565b805160031015611d055760800190565b805160041015611d055760a00190565b805160051015611d055760c00190565b805160061015611d055760e00190565b805160071015611d05576101000190565b670de0b6b3a764000051811015611d055760051b670de0b6b3a76400200190565b8051821015611d055760209160051b010190565b9190820180921161154157565b604051906145e282613fe4565b816020600a5464ffffffffff90818116845260281c16910152565b6040517fe4dc2aa40000000000000000000000000000000000000000000000000000000081523060048201526020816024816001600160a01b037f0000000000000000000000000000000000000000000000000000000000000000165afa908115612616575f9161466c575090565b90506020813d602011614693575b816146876020938361401d565b81010312610763575190565b3d915061467a565b905f9060068054925b8381106147205750505050506040516146bc81613fe4565b600581527f6572726f720000000000000000000000000000000000000000000000000000006020820152906040516146f381613fe4565b601081527f64657461696c206e6f7420666f756e6400000000000000000000000000000000602082015290565b815f52807ff652222313e28459528d920b65115c16c04f3efc82aaedc97be59f3f377c0d3f0180549061475282614040565b916040906147628251948561401d565b808452602092838501905f52835f205f915b838310614876575050505061478883614515565b5181516147af84828180820195805191829101875e81015f8382015203808452018261401d565b5190208882516147d985828180820195805191829101875e81015f8382015203808452018261401d565b519020149182614811575b50506147f357506001016146a4565b9594505050505061480d61480683614532565b5192614542565b5190565b90915061481d83614522565b51825161484483828180820195805191829101875e81015f8382015203808452018261401d565b519020915161486b8282019282895180838c01875e81015f8382015203808452018261401d565b519020145f806147e4565b8451825491905f614886846142f5565b8083526001948a86821691825f146149095750506001146148c3575b5091816148b58a9360019695038261401d565b815201920192019190614774565b9050989e9d9c9b9a9998845f52885f20905f915b8183106148f657509e9f9d9e509b9c9a9b999a989981018801816148a2565b80548484018c0152918a019185016148d7565b7fffffffffffffffffffffffffffffffffffffffffffffffffffffffffffffff00168582015291151560051b840190910191508290506148a2565b9061494d6145d5565b917f00000000000000000000000000000000000000000000000000000000000000009264ffffffffff9081804216918160208201511680421015614d76575b5051811691160381811161154157169260608201805191856004938481108080614d67575b8115614d4a575b5015614d2a57505081516080850151915f60206040516149d781613fe4565b8281520152828282878310614cef5750505060031991828101908111614cdc5792828101908111614cdc57918101908111614cc95791614a418892614a50614a47614a57969b8c95614a41614a39614a30600854614e8b565b988301896145b4565b5191886145b4565b51615d67565b9a8201846145b4565b51926145b4565b94856020604051614a6781613fe4565b838152015294905b8351614a7a8161423e565b614a838161423e565b614ba85794614abd949560208501948551916040820192614aa784518351906145b4565b51670de0b6b3a7640000998a91600f5490614db2565b0410614b8157906080614ad7614ae39385519051906145b4565b519351910151906145b4565b51945186614af083614d7e565b048111614b5a5790614b05614b0b92826145c8565b90615f09565b9285820291808304871490151715614b47575091614b30614b3692614b43959461515a565b90615a31565b8381810391100290614db2565b0490565b601190634e487b7160e01b5f525260245ffd5b847f340a4533000000000000000000000000000000000000000000000000000000005f525ffd5b857f27e92f0f000000000000000000000000000000000000000000000000000000005f525ffd5b614be2929560208501918251956040810196614bcc608089519301928351906145b4565b51670de0b6b3a7640000978891600f5490614db2565b0410614ca257614bf9614c049288519051906145b4565b5196519051906145b4565b51915193614c1183614d7e565b048411614c7b57614c2c82614b05614c3296614b3095614508565b92615f09565b907ffffffffffffffffffffffffffffffffffffffffffffffffff21f494c589c00008201918211614c685761414e929350615abc565b601184634e487b7160e01b5f525260245ffd5b867f64590b9f000000000000000000000000000000000000000000000000000000005f525ffd5b887f27e92f0f000000000000000000000000000000000000000000000000000000005f525ffd5b601185634e487b7160e01b5f525260245ffd5b601186634e487b7160e01b5f525260245ffd5b90929994508691935011614d20575b614a418392614a50614a47614a57968c95614a41614a39614a30600754614e8b565b9396508693614cfe565b82614d449392614d3992614f63565b966080860151614f63565b90614a6f565b90501580614d59575b5f6149b8565b508460808701511015614d53565b905085608088015110906149b1565b92508161498c565b90670429d069189e00009182810292818404149015171561154157565b906127109182810292818404149015171561154157565b8181029291811591840414171561154157565b818110614dd0575050565b5f8155600101614dc5565b9080601f8301121561076357815190602091614df681614040565b93614e04604051958661401d565b81855260208086019260051b82010192831161076357602001905b828210614e2d575050505090565b81516001600160a01b0381168103610763578152908301908301614e1f565b9060208282031261076357815167ffffffffffffffff81116107635761414e9201614ddb565b90633b9aca009182810292818405149015171561154157565b614f5660405191614e9b83614000565b60088352610100366020850137614eb48160e01d614e72565b614ebd84614515565b526003614ece8260c01d820b614e72565b614ed785614522565b52614ee68260a01d820b614e72565b614eef85614532565b52614efe8260801d820b614e72565b614f0785614542565b52614f168260601d820b614e72565b614f1f85614552565b52614f2e8260401d820b614e72565b614f3785614562565b52614f468260201d820b614e72565b614f4f85614572565b520b614e72565b614f5f82614582565b5290565b808360048210614fa85750506003199081810190811161154157926008549181019081116115415761414e93614a50614f9f614a419394614e8b565b938201846145b4565b61414e949250600410614fc8575b614a4190614a50614f9f600754614e8b565b60049150614fb6565b6001600160a01b037f000000000000000000000000000000000000000000000000000000000000000016330361500357565b7f089676d5000000000000000000000000000000000000000000000000000000005f523360045260245ffd5b6001600160a01b037f000000000000000000000000000000000000000000000000000000000000000016301480615131575b1561508a577f000000000000000000000000000000000000000000000000000000000000000090565b60405160208101907f8b73c3c69bb8fe3d512ecc4cf759cc79239f7b179b0ffacaa9a75d522b39400f82527f000000000000000000000000000000000000000000000000000000000000000060408201527f000000000000000000000000000000000000000000000000000000000000000060608201524660808201523060a082015260a0815260c0810181811067ffffffffffffffff821117610b715760405251902090565b507f00000000000000000000000000000000000000000000000000000000000000004614615061565b8115612a58570490565b9081518082526020808093019301915f5b828110615183575050505090565b835185529381019392810192600101615175565b1561519e57565b606460405162461bcd60e51b815260206004820152600460248201527f696e6974000000000000000000000000000000000000000000000000000000006044820152fd5b7f000000000000000000000000000000000000000000000000000000000000000061520c816144d7565b9064ffffffffff80421681600a54818160281c16804210156153fd575b5016900316615239600754614e8b565b91806004821193846153f4575b6152658461525383614515565b5161525e85856145b4565b5190615d67565b61526e87614515565b5261528a8461527c83614522565b5161525e60018601856145b4565b61529387614522565b5260028311156153ec576152b8846152aa83614532565b5161525e60028601856145b4565b6152c187614532565b5260038311156153ec576152e89161525e8260036152df8895614542565b519301906145b4565b6152f185614542565b52600481146153e657615305600854614e8b565b92156153e6576153278261531885614515565b5161525e6003198501876145b4565b61533085614552565b5260058111156153e6576153748261534785614522565b5161525e7ffffffffffffffffffffffffffffffffffffffffffffffffffffffffffffffffd8501876145b4565b61537d85614562565b5260068111156153e6576153c18261539485614532565b5161525e7ffffffffffffffffffffffffffffffffffffffffffffffffffffffffffffffffe8501876145b4565b6153ca85614572565b5260078111156153e65761525e835f196152df614f5696614542565b50505090565b505050505090565b60049150615246565b92505f615229565b8015612a58576ec097ce7bc90715b34b9f10000000000590565b8115612a58570590565b1561543057565b606460405162461bcd60e51b815260206004820152600860248201527f4f766572666c6f770000000000000000000000000000000000000000000000006044820152fd5b906060915f80915f918151600890600881101561554b575b505015615520575b61549f828251614508565b6154a857505050565b909360e0939293925f5b835187101561550c57601f1960019163ffffffff633b9aca006154d58b896145b4565b5105637fffffff811315806154fd575b6154ee90615429565b16871b179501960195936154b2565b50637fffffff198112156154e5565b93509390945061551d9150846145b4565b52565b805190945060081061553c5761553660016144d7565b93615494565b61553660018260031c016144d7565b809197508492505b87811015615873575b501461586a5760018260031c015b615573816144d7565b955f5b8481101561548c5781633b9aca00918261559082886145b4565b51056101405263ffffffff600193806155ab8685018a6145b4565b510561012052806155bf600285018a6145b4565b510561010052806155d3600385018a6145b4565b510560e052806155e6600485018a6145b4565b510560c052806155f9600585018a6145b4565b510560a0528061560c600685018a6145b4565b510560805261561e60078401896145b4565b5105637fffffff61014051131580615858575b80615847575b80615835575b80615824575b80615812575b80615802575b806157f1575b806157e1575b806157d0575b806157c0575b806157af575b8061579f575b8061578e575b80615780575b80615771575b61568e90615429565b1667ffffffff0000000060805160201b166bffffffff000000000000000060a05160401b166fffffffff00000000000000000000000060c05160601b1673ffffffff0000000000000000000000000000000060e05160801b1677ffffffff00000000000000000000000000000000000000006101005160a01b167bffffffff0000000000000000000000000000000000000000000000006101205160c01b167fffffffff000000000000000000000000000000000000000000000000000000006101405160e01b1617171717171717615767898c6145b4565b5201950194615576565b50637fffffff19811215615685565b50637fffffff81131561567f565b50637fffffff196080511215615679565b50637fffffff6080511315615673565b50637fffffff1960a051121561566d565b50637fffffff60a0511315615667565b50637fffffff1960c0511215615661565b50637fffffff60c051131561565b565b50637fffffff1960e0511215615655565b50637fffffff60e051131561564f565b50637fffffff19610100511215615649565b50637fffffff610100511315615643565b50637fffffff1961012051121561563d565b50637fffffff610120511315615637565b50637fffffff19610140511215615631565b8160031c61556a565b909150600781161561588a575f1901908391615553565b925082905f61555c565b90815160019060011c6040805190606080830183811067ffffffffffffffff821117610b7157604052600283525f5b828110615a215750505080946040516158db81614000565b6008815261010090813660208301376158f384614515565b526158fd83614515565b505f855b6159b7575b506040519061591482614000565b6008825236602083013761592783614522565b5261593182614522565b50600319830190838211611541575f5b82811061595057505050505050565b600480820190818311614b4757509061599261598c87846159728b96886145b4565b51615986866159808c614522565b516145b4565b526145c8565b846145b4565b516159b061599f87614522565b516159aa87856145c8565b906145b4565b5201615941565b600480821015615a1b576159cb82856145b4565b516159d98361598088614515565b526159ed6159e787846145c8565b856145b4565b51906159f886614515565b5181840191828511614b47575091615a1389949285946145b4565b520190615901565b50615906565b80826020809387010152016158c3565b90670de0b6b3a764000090818103615a4857505090565b671bc16d674ec800008103615a635750508061414e91615abc565b673782dace9d9000008103615a87575050615a818161414e92615abc565b80615abc565b615a919192615f3a565b906001615a9d83614d9b565b915f198301040190151502600181018091116115415761414e916145c8565b90615ac691614db2565b6001670de0b6b3a76400005f19830104019015150290565b60ff8114615b325760ff811690601f8211615b0a5760405191615b0083613fe4565b8252602082015290565b7fb3512b0c000000000000000000000000000000000000000000000000000000005f5260045ffd5b506040515f815f5491615b44836142f5565b80835292602090600190818116908115615bcd5750600114615b6f575b505061414e9250038261401d565b9150925f80527f290decd9548b62a8d60345a988386fc84ba6bc95484008f6362f93160ef3e563935f925b828410615bb5575061414e9450505081016020015f80615b61565b85548785018301529485019486945092810192615b9a565b90506020935061414e9592507fffffffffffffffffffffffffffffffffffffffffffffffffffffffffffffff0091501682840152151560051b8201015f80615b61565b60ff8114615c325760ff811690601f8211615b0a5760405191615b0083613fe4565b506040515f81600191600154615c47816142f5565b8084529360209160018116908115615bcd5750600114615c6f57505061414e9250038261401d565b91509260015f527fb10e2d527612073b26eecdfd717e6a320cf44b4afac2b0732d9fcbe2b7fa0cf6935f925b828410615cb6575061414e9450505081016020015f80615b61565b85548785018301529485019486945092810192615c9b565b670de0b6b3a764000091808303615ce55750905090565b8290671bc16d674ec800008103615d0257505080614b4391614db2565b673782dace9d9000008103615d265750615d1f82614b4393614db2565b0480614db2565b9050615d3191615f3a565b615d3a81614d9b565b60015f1993848301040190151502906001820180831161154157811015615d62575050505f90565b030190565b90670de0b6b3a76400009081810290808205831481151715611541575f1215615d9e5761414e93615d9791614db2565b04906145c8565b90507f800000000000000000000000000000000000000000000000000000000000000081146115415761414e92615dd6915f03615abc565b90614508565b91907f7fffffffffffffffffffffffffffffff5d576e7357a4501ddfe92f46681b20a08411615e53579160209360809260ff5f9560405194855216868401526040830152606082015282805260015afa15612616575f516001600160a01b03811615615e4957905f905f90565b505f906001905f90565b5050505f9160039190565b60048110156142485780615e70575050565b60018103615ea0577ff645eedf000000000000000000000000000000000000000000000000000000005f5260045ffd5b60028103615ed457507ffce698f7000000000000000000000000000000000000000000000000000000005f5260045260245ffd5b600314615ede5750565b7fd78bce0c000000000000000000000000000000000000000000000000000000005f5260045260245ffd5b90801561367057670de0b6b3a764000091828102928184041490151715611541576001905f19830104019015150290565b90801561686357811561685d578160ff1c61683557770bce5086492111aea88f4bb1ca6bcf584181ea8059f7653281101561680d5781670c7d713b49da000012806167fc575b1561649957670de0b6b3a7640000916ec097ce7bc90715b34b9f100000000090615fd3908402828101907fffffffffffffffffffffffffffffffffff3f68318436f8ea4cb460f00000000001830261541f565b9080828002059181838202058284820205838582020591848684020593858786020595808888020597880205600f900596600d900595600b900594600990059360079005926005900591600390050101010101010160011b918082818507020592050201670de0b6b3a7640000905b057ffffffffffffffffffffffffffffffffffffffffffffffffdc702bd3a30fc00008181131580616486575b1561645e5781908212158061644b575b15616423575f915f8112616414575b506064906806f05b59d3b200000081126163b1577ffffffffffffffffffffffffffffffffffffffffffffffff90fa4a62c4e0000000168056bc75e2d6310000082770195e54c5dd42177f53a27172fa9ec630262827000000000925b02819068ad78ebc5ac62000000811215616378575b6856bc75e2d63100000081121561633e575b682b5e3af16b18800000811215616306575b6815af1d78b58c4000008112156162ce575b680ad78ebc5ac6200000811215616297575b82811215616260575b6802b5e3af16b1880000811215616229575b68015af1d78b58c400008112156161f2575b60028382800205056003848383020505600485848302050585600581868402050560068287830205056007838883020505906008848984020505926009858a8602050595600a868b8902050597600b878c8b02050599600c888d8d0205059b01010101010101010101010102050205905f1461414e5761414e90615405565b6806f5f17757889379377ffffffffffffffffffffffffffffffffffffffffffffffffea50e2874a73c000084920192020590616173565b6808f00f760a4b2db55d7ffffffffffffffffffffffffffffffffffffffffffffffffd4a1c50e94e78000084920192020590616161565b680ebc5fb417461211107ffffffffffffffffffffffffffffffffffffffffffffffffa9438a1d29cf000008492019202059061614f565b68280e60114edb805d037ffffffffffffffffffffffffffffffffffffffffffffffff5287143a539e0000084920192020590616146565b690127fa27722cc06cc5e27fffffffffffffffffffffffffffffffffffffffffffffffea50e2874a73c0000084920192020590616134565b693f1fce3da636ea5cf8507fffffffffffffffffffffffffffffffffffffffffffffffd4a1c50e94e780000084920192020590616122565b6b02df0ab5a80a22c61ab5a7007fffffffffffffffffffffffffffffffffffffffffffffffa9438a1d29cf00000084920192020590616110565b6e01855144814a7ff805980ff008400091507fffffffffffffffffffffffffffffffffffffffffffffff5287143a539e000000016160fe565b6803782dace9d90000008112616401577ffffffffffffffffffffffffffffffffffffffffffffffffc87d25316270000000168056bc75e2d63100000826b1425982cf597cd205cef7380926160e9565b68056bc75e2d63100000826001926160e9565b600192505f039050606461608d565b7fd4794efd000000000000000000000000000000000000000000000000000000005f5260045ffd5b5068070c1cc73b00c8000082131561607e565b7fa2f9f7e3000000000000000000000000000000000000000000000000000000005f5260045ffd5b5068070c1cc73b00c8000082131561606e565b81670de0b6b3a7640000925f918481126167e6575b506064905f7e1600ef3172e58d2e933ec884fde10064c63b5372d805e203c00000000000008212156167bb575b73011798004d755d3c8bc8e03204cf44619e00000082121561679a575b820290808302906e01855144814a7ff805980ff00840009081831215616777575b50506b02df0ab5a80a22c61ab5a70080821215616757575b50693f1fce3da636ea5cf85080821215616737575b50690127fa27722cc06cc5e280821215616717575b5068280e60114edb805d03808212156166f7575b50680ebc5fb41746121110808212156166e0575b506808f00f760a4b2db55d808212156166c0575b506806f5f1775788937937808212156166a0575b506806248f33704b28660380821215616681575b506805c548670b9510e7ac80821215616662575b5061660f68056bc75e2d6310000091827ffffffffffffffffffffffffffffffffffffffffffffffffa9438a1d29cf0000081830192010261541f565b9080828002059181838202058284820205916003600560076009600b888a89020598808b8b02059a8b0205059805960594059205010101010160011b0105905f1461665d575f035b02616042565b616657565b68056bc75e2d631000006756bc75e2d63100009202059101905f6165d3565b68056bc75e2d6310000067ad78ebc5ac6200009202059101905f6165bf565b68056bc75e2d6310000068015af1d78b58c400009202059101905f6165ab565b68056bc75e2d631000006802b5e3af16b18800009202059101905f616597565b68056bc75e2d63100000809202059101905f616583565b68056bc75e2d63100000680ad78ebc5ac62000009202059101905f61656f565b68056bc75e2d631000006815af1d78b58c4000009202059101905f61655b565b68056bc75e2d63100000682b5e3af16b188000009202059101905f616546565b68056bc75e2d631000006856bc75e2d6310000009202059101905f616531565b68ad78ebc5ac62000000925069021e19e0c9bab240000002059101905f80616519565b906b1425982cf597cd205cef73806803782dace9d9000000910591016164f8565b50770195e54c5dd42177f53a27172fa9ec63026282700000000090056806f05b59d3b20000006164db565b90506167f29150615405565b60019060646164ae565b50670f43fc2c04ee00008212615f80565b7fd8317311000000000000000000000000000000000000000000000000000000005f5260045ffd5b7f022701e0000000000000000000000000000000000000000000000000000000005f5260045ffd5b50505f90565b5050670de0b6b3a76400009056fea2646970667358221220902d11592cc4d016e50ea90eda0b3d93c71d8b6afe754f7658981a289726363564736f6c634300081a0033",
  "linkReferences": {},
  "deployedLinkReferences": {}
}