{
  "_format": "hh-sol-artifact-1",
  "contractName": "QuantAMMWeightedPool",
  "sourceName": "contracts/QuantAMMWeightedPool.sol",
  "abi": [
    {
      "inputs": [
        {
          "components": [
            {
              "internalType": "string",
              "name": "name",
              "type": "string"
            },
            {
              "internalType": "string",
              "name": "symbol",
              "type": "string"
            },
            {
              "internalType": "uint256",
              "name": "numTokens",
              "type": "uint256"
            },
            {
              "internalType": "string",
              "name": "version",
              "type": "string"
            },
            {
              "internalType": "address",
              "name": "updateWeightRunner",
              "type": "address"
            },
            {
              "internalType": "uint256",
              "name": "poolRegistry",
              "type": "uint256"
            },
            {
              "internalType": "string[][]",
              "name": "poolDetails",
              "type": "string[][]"
            }
          ],
          "internalType": "struct QuantAMMWeightedPool.NewPoolParams",
          "name": "params",
          "type": "tuple"
        },
        {
          "internalType": "contract IVault",
          "name": "vault",
          "type": "address"
        }
      ],
      "stateMutability": "nonpayable",
      "type": "constructor"
    },
    {
      "inputs": [],
      "name": "BaseOutOfBounds",
      "type": "error"
    },
    {
      "inputs": [],
      "name": "ECDSAInvalidSignature",
      "type": "error"
    },
    {
      "inputs": [
        {
          "internalType": "uint256",
          "name": "length",
          "type": "uint256"
        }
      ],
      "name": "ECDSAInvalidSignatureLength",
      "type": "error"
    },
    {
      "inputs": [
        {
          "internalType": "bytes32",
          "name": "s",
          "type": "bytes32"
        }
      ],
      "name": "ECDSAInvalidSignatureS",
      "type": "error"
    },
    {
      "inputs": [
        {
          "internalType": "uint256",
          "name": "deadline",
          "type": "uint256"
        }
      ],
      "name": "ERC2612ExpiredSignature",
      "type": "error"
    },
    {
      "inputs": [
        {
          "internalType": "address",
          "name": "signer",
          "type": "address"
        },
        {
          "internalType": "address",
          "name": "owner",
          "type": "address"
        }
      ],
      "name": "ERC2612InvalidSigner",
      "type": "error"
    },
    {
      "inputs": [],
      "name": "ExponentOutOfBounds",
      "type": "error"
    },
    {
      "inputs": [],
      "name": "InputLengthMismatch",
      "type": "error"
    },
    {
      "inputs": [
        {
          "internalType": "address",
          "name": "account",
          "type": "address"
        },
        {
          "internalType": "uint256",
          "name": "currentNonce",
          "type": "uint256"
        }
      ],
      "name": "InvalidAccountNonce",
      "type": "error"
    },
    {
      "inputs": [],
      "name": "InvalidExponent",
      "type": "error"
    },
    {
      "inputs": [],
      "name": "InvalidInitialization",
      "type": "error"
    },
    {
      "inputs": [],
      "name": "InvalidShortString",
      "type": "error"
    },
    {
      "inputs": [],
      "name": "MaxInRatio",
      "type": "error"
    },
    {
      "inputs": [],
      "name": "MaxOutRatio",
      "type": "error"
    },
    {
      "inputs": [],
      "name": "MinWeight",
      "type": "error"
    },
    {
      "inputs": [],
      "name": "NormalizedWeightInvariant",
      "type": "error"
    },
    {
      "inputs": [],
      "name": "NotInitializing",
      "type": "error"
    },
    {
      "inputs": [
        {
          "internalType": "int256",
          "name": "x",
          "type": "int256"
        }
      ],
      "name": "PRBMathSD59x18__FromIntOverflow",
      "type": "error"
    },
    {
      "inputs": [
        {
          "internalType": "int256",
          "name": "x",
          "type": "int256"
        }
      ],
      "name": "PRBMathSD59x18__FromIntUnderflow",
      "type": "error"
    },
    {
      "inputs": [],
      "name": "ProductOutOfBounds",
      "type": "error"
    },
    {
      "inputs": [
        {
          "internalType": "address",
          "name": "sender",
          "type": "address"
        }
      ],
      "name": "SenderIsNotVault",
      "type": "error"
    },
    {
      "inputs": [
        {
          "internalType": "string",
          "name": "str",
          "type": "string"
        }
      ],
      "name": "StringTooLong",
      "type": "error"
    },
    {
      "inputs": [],
      "name": "WeightedPoolBptRateUnsupported",
      "type": "error"
    },
    {
      "inputs": [],
      "name": "ZeroDivision",
      "type": "error"
    },
    {
      "inputs": [],
      "name": "ZeroInvariant",
      "type": "error"
    },
    {
      "inputs": [],
      "name": "maxTradeSizeRatioExceeded",
      "type": "error"
    },
    {
      "anonymous": false,
      "inputs": [
        {
          "indexed": true,
          "internalType": "address",
          "name": "owner",
          "type": "address"
        },
        {
          "indexed": true,
          "internalType": "address",
          "name": "spender",
          "type": "address"
        },
        {
          "indexed": false,
          "internalType": "uint256",
          "name": "value",
          "type": "uint256"
        }
      ],
      "name": "Approval",
      "type": "event"
    },
    {
      "anonymous": false,
      "inputs": [],
      "name": "EIP712DomainChanged",
      "type": "event"
    },
    {
      "anonymous": false,
      "inputs": [
        {
          "indexed": false,
          "internalType": "uint64",
          "name": "version",
          "type": "uint64"
        }
      ],
      "name": "Initialized",
      "type": "event"
    },
    {
      "anonymous": false,
      "inputs": [
        {
          "indexed": false,
          "internalType": "address",
          "name": "rule",
          "type": "address"
        },
        {
          "indexed": false,
          "internalType": "address[][]",
          "name": "poolOracles",
          "type": "address[][]"
        },
        {
          "indexed": false,
          "internalType": "uint64[]",
          "name": "lambda",
          "type": "uint64[]"
        },
        {
          "indexed": false,
          "internalType": "int256[][]",
          "name": "ruleParameters",
          "type": "int256[][]"
        },
        {
          "indexed": false,
          "internalType": "uint64",
          "name": "epsilonMax",
          "type": "uint64"
        },
        {
          "indexed": false,
          "internalType": "uint64",
          "name": "absoluteWeightGuardRail",
          "type": "uint64"
        },
        {
          "indexed": false,
          "internalType": "uint40",
          "name": "updateInterval",
          "type": "uint40"
        },
        {
          "indexed": false,
          "internalType": "address",
          "name": "poolManager",
          "type": "address"
        },
        {
          "indexed": false,
          "internalType": "address",
          "name": "creatorAddress",
          "type": "address"
        }
      ],
      "name": "PoolRuleSet",
      "type": "event"
    },
    {
      "anonymous": false,
      "inputs": [
        {
          "indexed": true,
          "internalType": "address",
          "name": "from",
          "type": "address"
        },
        {
          "indexed": true,
          "internalType": "address",
          "name": "to",
          "type": "address"
        },
        {
          "indexed": false,
          "internalType": "uint256",
          "name": "value",
          "type": "uint256"
        }
      ],
      "name": "Transfer",
      "type": "event"
    },
    {
      "anonymous": false,
      "inputs": [
        {
          "indexed": true,
          "internalType": "address",
          "name": "oldAddress",
          "type": "address"
        },
        {
          "indexed": true,
          "internalType": "address",
          "name": "newAddress",
          "type": "address"
        }
      ],
      "name": "UpdateWeightRunnerAddressUpdated",
      "type": "event"
    },
    {
      "anonymous": false,
      "inputs": [
        {
          "indexed": true,
          "internalType": "address",
          "name": "poolAddress",
          "type": "address"
        },
        {
          "indexed": false,
          "internalType": "int256[]",
          "name": "weights",
          "type": "int256[]"
        },
        {
          "indexed": false,
          "internalType": "uint40",
          "name": "lastInterpolationTimePossible",
          "type": "uint40"
        },
        {
          "indexed": false,
          "internalType": "uint40",
          "name": "lastUpdateTime",
          "type": "uint40"
        }
      ],
      "name": "WeightsUpdated",
      "type": "event"
    },
    {
      "inputs": [],
      "name": "DOMAIN_SEPARATOR",
      "outputs": [
        {
          "internalType": "bytes32",
          "name": "",
          "type": "bytes32"
        }
      ],
      "stateMutability": "view",
      "type": "function"
    },
    {
      "inputs": [],
      "name": "PERMIT_TYPEHASH",
      "outputs": [
        {
          "internalType": "bytes32",
          "name": "",
          "type": "bytes32"
        }
      ],
      "stateMutability": "view",
      "type": "function"
    },
    {
      "inputs": [],
      "name": "absoluteWeightGuardRail",
      "outputs": [
        {
          "internalType": "uint64",
          "name": "",
          "type": "uint64"
        }
      ],
      "stateMutability": "view",
      "type": "function"
    },
    {
      "inputs": [
        {
          "internalType": "address",
          "name": "owner",
          "type": "address"
        },
        {
          "internalType": "address",
          "name": "spender",
          "type": "address"
        }
      ],
      "name": "allowance",
      "outputs": [
        {
          "internalType": "uint256",
          "name": "",
          "type": "uint256"
        }
      ],
      "stateMutability": "view",
      "type": "function"
    },
    {
      "inputs": [
        {
          "internalType": "address",
          "name": "spender",
          "type": "address"
        },
        {
          "internalType": "uint256",
          "name": "amount",
          "type": "uint256"
        }
      ],
      "name": "approve",
      "outputs": [
        {
          "internalType": "bool",
          "name": "",
          "type": "bool"
        }
      ],
      "stateMutability": "nonpayable",
      "type": "function"
    },
    {
      "inputs": [
        {
          "internalType": "uint256",
          "name": "",
          "type": "uint256"
        }
      ],
      "name": "assets",
      "outputs": [
        {
          "internalType": "contract IERC20",
          "name": "",
          "type": "address"
        }
      ],
      "stateMutability": "view",
      "type": "function"
    },
    {
      "inputs": [
        {
          "internalType": "address",
          "name": "account",
          "type": "address"
        }
      ],
      "name": "balanceOf",
      "outputs": [
        {
          "internalType": "uint256",
          "name": "",
          "type": "uint256"
        }
      ],
      "stateMutability": "view",
      "type": "function"
    },
    {
      "inputs": [
        {
          "internalType": "uint256[]",
          "name": "balancesLiveScaled18",
          "type": "uint256[]"
        },
        {
          "internalType": "uint256",
          "name": "tokenInIndex",
          "type": "uint256"
        },
        {
          "internalType": "uint256",
          "name": "invariantRatio",
          "type": "uint256"
        }
      ],
      "name": "computeBalance",
      "outputs": [
        {
          "internalType": "uint256",
          "name": "newBalance",
          "type": "uint256"
        }
      ],
      "stateMutability": "view",
      "type": "function"
    },
    {
      "inputs": [
        {
          "internalType": "uint256[]",
          "name": "balancesLiveScaled18",
          "type": "uint256[]"
        },
        {
          "internalType": "enum Rounding",
          "name": "rounding",
          "type": "uint8"
        }
      ],
      "name": "computeInvariant",
      "outputs": [
        {
          "internalType": "uint256",
          "name": "",
          "type": "uint256"
        }
      ],
      "stateMutability": "view",
      "type": "function"
    },
    {
      "inputs": [],
      "name": "decimals",
      "outputs": [
        {
          "internalType": "uint8",
          "name": "",
          "type": "uint8"
        }
      ],
      "stateMutability": "pure",
      "type": "function"
    },
    {
      "inputs": [],
      "name": "deploymentTime",
      "outputs": [
        {
          "internalType": "uint256",
          "name": "",
          "type": "uint256"
        }
      ],
      "stateMutability": "view",
      "type": "function"
    },
    {
      "inputs": [],
      "name": "eip712Domain",
      "outputs": [
        {
          "internalType": "bytes1",
          "name": "fields",
          "type": "bytes1"
        },
        {
          "internalType": "string",
          "name": "name",
          "type": "string"
        },
        {
          "internalType": "string",
          "name": "version",
          "type": "string"
        },
        {
          "internalType": "uint256",
          "name": "chainId",
          "type": "uint256"
        },
        {
          "internalType": "address",
          "name": "verifyingContract",
          "type": "address"
        },
        {
          "internalType": "bytes32",
          "name": "salt",
          "type": "bytes32"
        },
        {
          "internalType": "uint256[]",
          "name": "extensions",
          "type": "uint256[]"
        }
      ],
      "stateMutability": "view",
      "type": "function"
    },
    {
      "inputs": [
        {
          "internalType": "address",
          "name": "owner",
          "type": "address"
        },
        {
          "internalType": "address",
          "name": "spender",
          "type": "address"
        },
        {
          "internalType": "uint256",
          "name": "amount",
          "type": "uint256"
        }
      ],
      "name": "emitApproval",
      "outputs": [],
      "stateMutability": "nonpayable",
      "type": "function"
    },
    {
      "inputs": [
        {
          "internalType": "address",
          "name": "from",
          "type": "address"
        },
        {
          "internalType": "address",
          "name": "to",
          "type": "address"
        },
        {
          "internalType": "uint256",
          "name": "amount",
          "type": "uint256"
        }
      ],
      "name": "emitTransfer",
      "outputs": [],
      "stateMutability": "nonpayable",
      "type": "function"
    },
    {
      "inputs": [],
      "name": "epsilonMax",
      "outputs": [
        {
          "internalType": "uint64",
          "name": "",
          "type": "uint64"
        }
      ],
      "stateMutability": "view",
      "type": "function"
    },
    {
      "inputs": [],
      "name": "getAggregateFeePercentages",
      "outputs": [
        {
          "internalType": "uint256",
          "name": "aggregateSwapFeePercentage",
          "type": "uint256"
        },
        {
          "internalType": "uint256",
          "name": "aggregateYieldFeePercentage",
          "type": "uint256"
        }
      ],
      "stateMutability": "view",
      "type": "function"
    },
    {
      "inputs": [],
      "name": "getCurrentLiveBalances",
      "outputs": [
        {
          "internalType": "uint256[]",
          "name": "balancesLiveScaled18",
          "type": "uint256[]"
        }
      ],
      "stateMutability": "view",
      "type": "function"
    },
    {
      "inputs": [],
      "name": "getMaximumInvariantRatio",
      "outputs": [
        {
          "internalType": "uint256",
          "name": "",
          "type": "uint256"
        }
      ],
      "stateMutability": "pure",
      "type": "function"
    },
    {
      "inputs": [],
      "name": "getMaximumSwapFeePercentage",
      "outputs": [
        {
          "internalType": "uint256",
          "name": "",
          "type": "uint256"
        }
      ],
      "stateMutability": "pure",
      "type": "function"
    },
    {
      "inputs": [],
      "name": "getMinimumInvariantRatio",
      "outputs": [
        {
          "internalType": "uint256",
          "name": "",
          "type": "uint256"
        }
      ],
      "stateMutability": "pure",
      "type": "function"
    },
    {
      "inputs": [],
      "name": "getMinimumSwapFeePercentage",
      "outputs": [
        {
          "internalType": "uint256",
          "name": "",
          "type": "uint256"
        }
      ],
      "stateMutability": "pure",
      "type": "function"
    },
    {
      "inputs": [],
      "name": "getNormalizedWeights",
      "outputs": [
        {
          "internalType": "uint256[]",
          "name": "",
          "type": "uint256[]"
        }
      ],
      "stateMutability": "view",
      "type": "function"
    },
    {
      "inputs": [],
      "name": "getOracleStalenessThreshold",
      "outputs": [
        {
          "internalType": "uint256",
          "name": "",
          "type": "uint256"
        }
      ],
      "stateMutability": "view",
      "type": "function"
    },
    {
      "inputs": [
        {
          "internalType": "string",
          "name": "category",
          "type": "string"
        },
        {
          "internalType": "string",
          "name": "name",
          "type": "string"
        }
      ],
      "name": "getPoolDetail",
      "outputs": [
        {
          "internalType": "string",
          "name": "",
          "type": "string"
        },
        {
          "internalType": "string",
          "name": "",
          "type": "string"
        }
      ],
      "stateMutability": "view",
      "type": "function"
    },
    {
      "inputs": [],
      "name": "getQuantAMMWeightedPoolDynamicData",
      "outputs": [
        {
          "components": [
            {
              "internalType": "uint256[]",
              "name": "balancesLiveScaled18",
              "type": "uint256[]"
            },
            {
              "internalType": "uint256[]",
              "name": "tokenRates",
              "type": "uint256[]"
            },
            {
              "internalType": "uint256",
              "name": "totalSupply",
              "type": "uint256"
            },
            {
              "internalType": "bool",
              "name": "isPoolInitialized",
              "type": "bool"
            },
            {
              "internalType": "bool",
              "name": "isPoolPaused",
              "type": "bool"
            },
            {
              "internalType": "bool",
              "name": "isPoolInRecoveryMode",
              "type": "bool"
            },
            {
              "internalType": "int256[]",
              "name": "weightsAtLastUpdateInterval",
              "type": "int256[]"
            },
            {
              "internalType": "int256[]",
              "name": "weightBlockMultipliers",
              "type": "int256[]"
            },
            {
              "internalType": "uint40",
              "name": "lastUpdateIntervalTime",
              "type": "uint40"
            },
            {
              "internalType": "uint40",
              "name": "lastInterpolationTimePossible",
              "type": "uint40"
            }
          ],
          "internalType": "struct IQuantAMMWeightedPool.QuantAMMWeightedPoolDynamicData",
          "name": "data",
          "type": "tuple"
        }
      ],
      "stateMutability": "view",
      "type": "function"
    },
    {
      "inputs": [],
      "name": "getQuantAMMWeightedPoolImmutableData",
      "outputs": [
        {
          "components": [
            {
              "internalType": "contract IERC20[]",
              "name": "tokens",
              "type": "address[]"
            },
            {
              "internalType": "uint256",
              "name": "oracleStalenessThreshold",
              "type": "uint256"
            },
            {
              "internalType": "uint256",
              "name": "poolRegistry",
              "type": "uint256"
            },
            {
              "internalType": "int256[][]",
              "name": "ruleParameters",
              "type": "int256[][]"
            },
            {
              "internalType": "uint64[]",
              "name": "lambda",
              "type": "uint64[]"
            },
            {
              "internalType": "uint64",
              "name": "epsilonMax",
              "type": "uint64"
            },
            {
              "internalType": "uint64",
              "name": "absoluteWeightGuardRail",
              "type": "uint64"
            },
            {
              "internalType": "uint256",
              "name": "maxTradeSizeRatio",
              "type": "uint256"
            },
            {
              "internalType": "uint64",
              "name": "updateInterval",
              "type": "uint64"
            }
          ],
          "internalType": "struct IQuantAMMWeightedPool.QuantAMMWeightedPoolImmutableData",
          "name": "data",
          "type": "tuple"
        }
      ],
      "stateMutability": "view",
      "type": "function"
    },
    {
      "inputs": [],
      "name": "getRate",
      "outputs": [
        {
          "internalType": "uint256",
          "name": "",
          "type": "uint256"
        }
      ],
      "stateMutability": "pure",
      "type": "function"
    },
    {
      "inputs": [],
      "name": "getStaticSwapFeePercentage",
      "outputs": [
        {
          "internalType": "uint256",
          "name": "",
          "type": "uint256"
        }
      ],
      "stateMutability": "view",
      "type": "function"
    },
    {
      "inputs": [],
      "name": "getTokenInfo",
      "outputs": [
        {
          "internalType": "contract IERC20[]",
          "name": "tokens",
          "type": "address[]"
        },
        {
          "components": [
            {
              "internalType": "enum TokenType",
              "name": "tokenType",
              "type": "uint8"
            },
            {
              "internalType": "contract IRateProvider",
              "name": "rateProvider",
              "type": "address"
            },
            {
              "internalType": "bool",
              "name": "paysYieldFees",
              "type": "bool"
            }
          ],
          "internalType": "struct TokenInfo[]",
          "name": "tokenInfo",
          "type": "tuple[]"
        },
        {
          "internalType": "uint256[]",
          "name": "balancesRaw",
          "type": "uint256[]"
        },
        {
          "internalType": "uint256[]",
          "name": "lastBalancesLiveScaled18",
          "type": "uint256[]"
        }
      ],
      "stateMutability": "view",
      "type": "function"
    },
    {
      "inputs": [],
      "name": "getTokens",
      "outputs": [
        {
          "internalType": "contract IERC20[]",
          "name": "tokens",
          "type": "address[]"
        }
      ],
      "stateMutability": "view",
      "type": "function"
    },
    {
      "inputs": [],
      "name": "getVault",
      "outputs": [
        {
          "internalType": "contract IVault",
          "name": "",
          "type": "address"
        }
      ],
      "stateMutability": "view",
      "type": "function"
    },
    {
      "inputs": [],
      "name": "getWithinFixWindow",
      "outputs": [
        {
          "internalType": "bool",
          "name": "",
          "type": "bool"
        }
      ],
      "stateMutability": "view",
      "type": "function"
    },
    {
      "inputs": [],
      "name": "incrementNonce",
      "outputs": [],
      "stateMutability": "nonpayable",
      "type": "function"
    },
    {
      "inputs": [
        {
          "components": [
            {
              "internalType": "string",
              "name": "name",
              "type": "string"
            },
            {
              "internalType": "string",
              "name": "symbol",
              "type": "string"
            },
            {
              "components": [
                {
                  "internalType": "contract IERC20",
                  "name": "token",
                  "type": "address"
                },
                {
                  "internalType": "enum TokenType",
                  "name": "tokenType",
                  "type": "uint8"
                },
                {
                  "internalType": "contract IRateProvider",
                  "name": "rateProvider",
                  "type": "address"
                },
                {
                  "internalType": "bool",
                  "name": "paysYieldFees",
                  "type": "bool"
                }
              ],
              "internalType": "struct TokenConfig[]",
              "name": "tokens",
              "type": "tuple[]"
            },
            {
              "internalType": "uint256[]",
              "name": "normalizedWeights",
              "type": "uint256[]"
            },
            {
              "components": [
                {
                  "internalType": "address",
                  "name": "pauseManager",
                  "type": "address"
                },
                {
                  "internalType": "address",
                  "name": "swapFeeManager",
                  "type": "address"
                },
                {
                  "internalType": "address",
                  "name": "poolCreator",
                  "type": "address"
                }
              ],
              "internalType": "struct PoolRoleAccounts",
              "name": "roleAccounts",
              "type": "tuple"
            },
            {
              "internalType": "uint256",
              "name": "swapFeePercentage",
              "type": "uint256"
            },
            {
              "internalType": "address",
              "name": "poolHooksContract",
              "type": "address"
            },
            {
              "internalType": "bool",
              "name": "enableDonation",
              "type": "bool"
            },
            {
              "internalType": "bool",
              "name": "disableUnbalancedLiquidity",
              "type": "bool"
            },
            {
              "internalType": "bytes32",
              "name": "salt",
              "type": "bytes32"
            },
            {
              "internalType": "int256[]",
              "name": "_initialWeights",
              "type": "int256[]"
            },
            {
              "components": [
                {
                  "internalType": "contract IERC20[]",
                  "name": "assets",
                  "type": "address[]"
                },
                {
                  "internalType": "contract IUpdateRule",
                  "name": "rule",
                  "type": "address"
                },
                {
                  "internalType": "address[][]",
                  "name": "oracles",
                  "type": "address[][]"
                },
                {
                  "internalType": "uint16",
                  "name": "updateInterval",
                  "type": "uint16"
                },
                {
                  "internalType": "uint64[]",
                  "name": "lambda",
                  "type": "uint64[]"
                },
                {
                  "internalType": "uint64",
                  "name": "epsilonMax",
                  "type": "uint64"
                },
                {
                  "internalType": "uint64",
                  "name": "absoluteWeightGuardRail",
                  "type": "uint64"
                },
                {
                  "internalType": "uint64",
                  "name": "maxTradeSizeRatio",
                  "type": "uint64"
                },
                {
                  "internalType": "int256[][]",
                  "name": "ruleParameters",
                  "type": "int256[][]"
                },
                {
                  "internalType": "address",
                  "name": "poolManager",
                  "type": "address"
                }
              ],
              "internalType": "struct IQuantAMMWeightedPool.PoolSettings",
              "name": "_poolSettings",
              "type": "tuple"
            },
            {
              "internalType": "int256[]",
              "name": "_initialMovingAverages",
              "type": "int256[]"
            },
            {
              "internalType": "int256[]",
              "name": "_initialIntermediateValues",
              "type": "int256[]"
            },
            {
              "internalType": "uint256",
              "name": "_oracleStalenessThreshold",
              "type": "uint256"
            },
            {
              "internalType": "uint256",
              "name": "poolRegistry",
              "type": "uint256"
            },
            {
              "internalType": "string[][]",
              "name": "poolDetails",
              "type": "string[][]"
            }
          ],
          "internalType": "struct QuantAMMWeightedPoolFactory.CreationNewPoolParams",
          "name": "initialiseParams",
          "type": "tuple"
        }
      ],
      "name": "initialize",
      "outputs": [],
      "stateMutability": "nonpayable",
      "type": "function"
    },
    {
      "inputs": [
        {
          "internalType": "uint256",
          "name": "",
          "type": "uint256"
        }
      ],
      "name": "lambda",
      "outputs": [
        {
          "internalType": "uint64",
          "name": "",
          "type": "uint64"
        }
      ],
      "stateMutability": "view",
      "type": "function"
    },
    {
      "inputs": [],
      "name": "name",
      "outputs": [
        {
          "internalType": "string",
          "name": "",
          "type": "string"
        }
      ],
      "stateMutability": "view",
      "type": "function"
    },
    {
      "inputs": [
        {
          "internalType": "address",
          "name": "owner",
          "type": "address"
        }
      ],
      "name": "nonces",
      "outputs": [
        {
          "internalType": "uint256",
          "name": "",
          "type": "uint256"
        }
      ],
      "stateMutability": "view",
      "type": "function"
    },
    {
      "inputs": [
        {
          "components": [
            {
              "internalType": "enum SwapKind",
              "name": "kind",
              "type": "uint8"
            },
            {
              "internalType": "uint256",
              "name": "amountGivenScaled18",
              "type": "uint256"
            },
            {
              "internalType": "uint256[]",
              "name": "balancesScaled18",
              "type": "uint256[]"
            },
            {
              "internalType": "uint256",
              "name": "indexIn",
              "type": "uint256"
            },
            {
              "internalType": "uint256",
              "name": "indexOut",
              "type": "uint256"
            },
            {
              "internalType": "address",
              "name": "router",
              "type": "address"
            },
            {
              "internalType": "bytes",
              "name": "userData",
              "type": "bytes"
            }
          ],
          "internalType": "struct PoolSwapParams",
          "name": "request",
          "type": "tuple"
        }
      ],
      "name": "onSwap",
      "outputs": [
        {
          "internalType": "uint256",
          "name": "",
          "type": "uint256"
        }
      ],
      "stateMutability": "view",
      "type": "function"
    },
    {
      "inputs": [
        {
          "internalType": "address",
          "name": "owner",
          "type": "address"
        },
        {
          "internalType": "address",
          "name": "spender",
          "type": "address"
        },
        {
          "internalType": "uint256",
          "name": "amount",
          "type": "uint256"
        },
        {
          "internalType": "uint256",
          "name": "deadline",
          "type": "uint256"
        },
        {
          "internalType": "uint8",
          "name": "v",
          "type": "uint8"
        },
        {
          "internalType": "bytes32",
          "name": "r",
          "type": "bytes32"
        },
        {
          "internalType": "bytes32",
          "name": "s",
          "type": "bytes32"
        }
      ],
      "name": "permit",
      "outputs": [],
      "stateMutability": "nonpayable",
      "type": "function"
    },
    {
      "inputs": [],
      "name": "poolRegistry",
      "outputs": [
        {
          "internalType": "uint256",
          "name": "",
          "type": "uint256"
        }
      ],
      "stateMutability": "view",
      "type": "function"
    },
    {
      "inputs": [
        {
          "internalType": "uint256",
          "name": "",
          "type": "uint256"
        },
        {
          "internalType": "uint256",
          "name": "",
          "type": "uint256"
        }
      ],
      "name": "ruleParameters",
      "outputs": [
        {
          "internalType": "int256",
          "name": "",
          "type": "int256"
        }
      ],
      "stateMutability": "view",
      "type": "function"
    },
    {
      "inputs": [
        {
          "internalType": "address",
          "name": "_updateWeightRunner",
          "type": "address"
        }
      ],
      "name": "setUpdateWeightRunnerAddress",
      "outputs": [],
      "stateMutability": "nonpayable",
      "type": "function"
    },
    {
      "inputs": [
        {
          "internalType": "int256[]",
          "name": "_weights",
          "type": "int256[]"
        },
        {
          "internalType": "address",
          "name": "_poolAddress",
          "type": "address"
        },
        {
          "internalType": "uint40",
          "name": "_lastInterpolationTimePossible",
          "type": "uint40"
        }
      ],
      "name": "setWeights",
      "outputs": [],
      "stateMutability": "nonpayable",
      "type": "function"
    },
    {
      "inputs": [
        {
          "internalType": "bytes4",
          "name": "interfaceId",
          "type": "bytes4"
        }
      ],
      "name": "supportsInterface",
      "outputs": [
        {
          "internalType": "bool",
          "name": "",
          "type": "bool"
        }
      ],
      "stateMutability": "view",
      "type": "function"
    },
    {
      "inputs": [],
      "name": "symbol",
      "outputs": [
        {
          "internalType": "string",
          "name": "",
          "type": "string"
        }
      ],
      "stateMutability": "view",
      "type": "function"
    },
    {
      "inputs": [],
      "name": "totalSupply",
      "outputs": [
        {
          "internalType": "uint256",
          "name": "",
          "type": "uint256"
        }
      ],
      "stateMutability": "view",
      "type": "function"
    },
    {
      "inputs": [
        {
          "internalType": "address",
          "name": "to",
          "type": "address"
        },
        {
          "internalType": "uint256",
          "name": "amount",
          "type": "uint256"
        }
      ],
      "name": "transfer",
      "outputs": [
        {
          "internalType": "bool",
          "name": "",
          "type": "bool"
        }
      ],
      "stateMutability": "nonpayable",
      "type": "function"
    },
    {
      "inputs": [
        {
          "internalType": "address",
          "name": "from",
          "type": "address"
        },
        {
          "internalType": "address",
          "name": "to",
          "type": "address"
        },
        {
          "internalType": "uint256",
          "name": "amount",
          "type": "uint256"
        }
      ],
      "name": "transferFrom",
      "outputs": [
        {
          "internalType": "bool",
          "name": "",
          "type": "bool"
        }
      ],
      "stateMutability": "nonpayable",
      "type": "function"
    },
    {
      "inputs": [],
      "name": "updateInterval",
      "outputs": [
        {
          "internalType": "uint64",
          "name": "",
          "type": "uint64"
        }
      ],
      "stateMutability": "view",
      "type": "function"
    },
    {
      "inputs": [],
      "name": "updateWeightRunner",
      "outputs": [
        {
          "internalType": "contract UpdateWeightRunner",
          "name": "",
          "type": "address"
        }
      ],
      "stateMutability": "view",
      "type": "function"
    },
    {
      "inputs": [],
      "name": "version",
      "outputs": [
        {
          "internalType": "string",
          "name": "",
          "type": "string"
        }
      ],
      "stateMutability": "view",
      "type": "function"
    }
  ],
  "bytecode": "0x610220604052346109f1576181ad803803809161001e82610220610d33565b61022039604081126109f157610220516001600160401b0381116109f157610220019060e082826102200103126109f1576040519160e083016001600160401b038111848210176107c25760405280516001600160401b0381116109f15761008d908361022001908301610d56565b835260208101516001600160401b0381116109f1576100b3908361022001908301610d56565b60208401526040818101519084015260608101516001600160401b0381116109f1576100e6908361022001908301610d56565b60608401526100f760808201610dab565b608084015260a0818101519084015260c08101516001600160401b0381116109f1578261022001601f8284010112156109f157808201519061013882610dbf565b936101466040519586610d33565b8285526020850193816102200160208560051b8584010101116109f157602083820101945b60208560051b85840101018610610c6b5760c0880187905261024051886001600160a01b03821682036109f157606081015181519260208301519360405180604081011060018060401b036040830111176107c2576040810160405260018152603160f81b60208201526101de82610e24565b610120526101eb81610f89565b6101405281516020830120908160e0526020815191012080610100524660a052604051917f8b73c3c69bb8fe3d512ecc4cf759cc79239f7b179b0ffacaa9a75d522b39400f6020840152604083015260608201524660808201523060a082015260a081528060c081011060018060401b0360c0830111176107c25760c08101604052602081519101206080523060c052816101605280519060018060401b0382116107c25761029b600354610dd6565b601f8111610c1d575b50602090601f8311600114610b96576102d492915f9183610b8b575b50508160011b915f199060031b1c19161790565b6003555b83516001600160401b0381116107c2576102f3600454610dd6565b601f8111610b3d575b506020601f8211600114610ad657819061032d939495965f92610acb5750508160011b915f199060031b1c19161790565b6004555b610180528051906001600160401b0382116107c257610351600554610dd6565b601f8111610a9a575b50602090601f8311600114610a135761038992915f9183610a085750508160011b915f199060031b1c19161790565b6005555b6040818101516101a0526080820151600980546001600160a01b0319166001600160a01b0392909216918217905590516360bcf9b160e11b815290602090829060049082905afa9081156109fd575f916109bf575b506101e052426101c05260a08101516001811615908115916109b2575b81156109a5575b8115610998575b811561098b575b50156109465760a081015161020052603260c08201515111610901575f5b60c082015180518210156104b95760206004918360051b010151510361045a57600101610432565b60405162461bcd60e51b815260206004820152603160248201527f64657461696c206e6565647320616c6c2034205b63617465676f72792c206e616044820152706d652c20747970652c2064657461696c5d60781b6064820152608490fd5b60c08301518051906801000000000000000082116107c25760065482600655808310610846575b506020019060065f5260205f205f925b8284106106565760405161711490816110998239608051816158e5015260a051816159b1015260c051816158b6015260e051816159340152610100518161595a01526101205181613560015261014051816135890152610160518181816108a1015281816109bf01528181610eb8015281816131b701528181613527015281816138b401528181613c3f01528181613f6e01528181613fdc0152818161405c01528181614db40152615858015261018051818181612c2401528181612da301528181612e93015281816130d8015261369201526101a05181818161039501528181611da80152818161289e01528181613d08015281816140b7015281816140e501528181614128015281816141500152818161417c0152818161433001528181614352015281816150c901526159e301526101c0518181816102c601528181610669015261457e01526101e051816106390152610200518181816109fc0152612e240152f35b80518051906801000000000000000082116107c25783548285558083106107d6575b5060200190835f5260205f205f925b8284106106a45750505050600160208192019201930192906104f0565b80518051906001600160401b0382116107c2576106c18454610dd6565b601f8111610787575b50602090601f831160011461071b5792610701836001959460209487965f926107105750508160011b915f199060031b1c19161790565b85555b01920193019290610687565b015190508e806102c0565b90845f5260205f20915f5b601f198516811061076f575083602093600196938796938794601f19811610610757575b505050811b018555610704565b01515f1960f88460031b161c191690558d808061074a565b91926020600181928685015181550194019201610726565b6107b290855f5260205f20601f850160051c810191602086106107b8575b601f0160051c0190610e0e565b8a6106ca565b90915081906107a5565b634e487b7160e01b5f52604160045260245ffd5b845f528260205f2091820191015b8181106107f15750610678565b806107fe60019254610dd6565b8061080b575b50016107e4565b601f8111831461082057505f81555b89610804565b5f9082825261083d601f60208420920160051c8201858301610e0e565b8183555561081a565b60065f527ff652222313e28459528d920b65115c16c04f3efc82aaedc97be59f3f377c0d3f9081019083015b81811061087f57506104e0565b80545f825580610893575b50600101610872565b815f5260205f20908101905b8181106108ac575061088a565b806108b960019254610dd6565b806108c6575b500161089f565b601f811183146108db57505f81555b876108bf565b5f908282526108f8601f60208420920160051c8201858301610e0e565b818355556108d5565b60405162461bcd60e51b815260206004820152601a60248201527f4c696d69742065786365656473206172726179206c656e6774680000000000006044820152606490fd5b60405162461bcd60e51b815260206004820152601560248201527f496e76616c696420706f6f6c20726567697374727900000000000000000000006044820152606490fd5b6020915016151582610414565b601081161515915061040d565b6008811615159150610406565b60028116151591506103ff565b90506020813d6020116109f5575b816109da60209383610d33565b810103126109f1576109eb90610dab565b826103e2565b5f80fd5b3d91506109cd565b6040513d5f823e3d90fd5b0151905084806102c0565b60055f90815292917f036b6384b5eca791c62761152d0c79bb0604c104a5fb6f4eb0703f3154bb3db0915b601f1984168510610a7f576001945083601f19811610610a67575b505050811b0160055561038d565b01515f1960f88460031b161c19169055838080610a59565b81810151835560209485019460019093019290910190610a3e565b610ac59060055f5260205f20601f850160051c810191602086106107b857601f0160051c0190610e0e565b8361035a565b0151905086806102c0565b60045f5260205f20905f5b601f1984168110610b25575060019394959683601f19811610610b0d575b505050811b01600455610331565b01515f1960f88460031b161c19169055858080610aff565b9091602060018192858b015181550193019101610ae1565b60045f52610b85907f8a35acfbc15ff81a39ae7d344fd709f28e8600b4aa8c65c6b64bfe7fe36bd19b601f840160051c810191602085106107b857601f0160051c0190610e0e565b856102fc565b0151905087806102c0565b60035f90815292917fc2575a0e9e593c00f959f8c92f12db2869c3395a3b0502d05e2516446f71f85b915b601f1984168510610c02576001945083601f19811610610bea575b505050811b016003556102d8565b01515f1960f88460031b161c19169055868080610bdc565b81810151835560209485019460019093019290910190610bc1565b60035f52610c65907fc2575a0e9e593c00f959f8c92f12db2869c3395a3b0502d05e2516446f71f85b601f850160051c810191602086106107b857601f0160051c0190610e0e565b866102a4565b85516001600160401b0381116109f1578361022001603f82878601010112156109f157602081868501010151610ca081610dbf565b91610cae6040519384610d33565b81835260208301866102200160408460051b848b8a01010101116109f1576040828988010101905b60408460051b848b8a010101018210610cfc57505050908252506020958601950161016b565b81516001600160401b0381116109f157602091610d288960408594888f8f610220019401010101610d56565b815201910190610cd6565b601f909101601f19168101906001600160401b038211908210176107c257604052565b81601f820112156109f1578051906001600160401b0382116107c25760405192610d8a601f8401601f191660200185610d33565b828452602083830101116109f157815f9260208093018386015e8301015290565b51906001600160a01b03821682036109f157565b6001600160401b0381116107c25760051b60200190565b90600182811c92168015610e04575b6020831014610df057565b634e487b7160e01b5f52602260045260245ffd5b91607f1691610de5565b818110610e19575050565b5f8155600101610e0e565b805160209081811015610e9a5750601f825111610e5c5780825192015190808310610e4e57501790565b825f19910360031b1b161790565b60448260405192839163305a27a960e01b83528160048401528051918291826024860152018484015e5f828201840152601f01601f19168101030190fd5b919291906001600160401b0382116107c257610eb65f54610dd6565b601f8111610f62575b5080601f8311600114610f0057508190610eee93945f92610ef55750508160011b915f199060031b1c19161790565b5f5560ff90565b015190505f806102c0565b90601f198316945f8052825f20925f905b878210610f4a575050836001959610610f32575b505050811b015f5560ff90565b01515f1960f88460031b161c191690555f8080610f25565b80600185968294968601518155019501930190610f11565b610f83905f8052601f835f20910160051c810190601f850160051c01610e0e565b5f610ebf565b805160209081811015610fb35750601f825111610e5c5780825192015190808310610e4e57501790565b9192916001600160401b0381116107c257600191610fd18354610dd6565b601f8111611071575b5080601f83116001146110115750819061100a9394955f92610ef55750508160011b915f199060031b1c19161790565b905560ff90565b90601f19831695845f52825f20925f905b88821061105a5750508385969710611042575b505050811b01905560ff90565b01515f1960f88460031b161c191690555f8080611035565b808785968294968601518155019501930190611022565b61109290845f52601f835f20910160051c810190601f850160051c01610e0e565b5f610fda56fe610160806040526004361015610013575f80fd5b5f905f3560e01c90816301ffc9a7146145ac57508063021eb7cd1461456257806306fdde03146144b9578063095ea7b3146144495780630f6480df1461442c578063132f426414613ed857806316a0b3e014613c9057806318160ddd14613c7657806323b872dd14613bdb57806323de665114613baa578063273c1adf14613b8857806330adf81f14613b4e578063313ce56714613b335780633644e51514613b19578063451a10aa14613a9a57806354fd4d50146139f15780635687f2b81461399d578063627cdcb914613974578063654cf15d14613952578063679aefce1461391a57806370a082311461385457806372c98186146137675780637445e37f146137415780637ecebe001461370957806381fa807c1461364357806384b0196e1461354b5780638d928af8146135085780638ddf01c0146134de57806395d89b41146133e2578063984de9e814613226578063a9059cbb1461313a578063aa6ca8081461308d578063abb1dc4414612e47578063afcff50f14612e0d578063b156aa0a14612d58578063b677fa5614612d36578063c0f38e7414612cd6578063ce20ece714612cb6578063cf35bdd014612c5d578063d335b0cf14612bd8578063d36a274f14610f7d578063d505accf14610d28578063d57878981461091e578063dd62ed3e1461082f578063dddd104a14610613578063e313fe38146105aa578063e4e3b53514610311578063eb296de1146102e9578063ecda10f5146102ae578063f89f27ed1461027a5763fd2c80ae14610250575f80fd5b34610277578060031936011261027757602067ffffffffffffffff60105416604051908152f35b80fd5b50346102775780600319360112610277576102aa6102966159e1565b6040519182916020835260208301906148b5565b0390f35b503461027757806003193601126102775760206040517f00000000000000000000000000000000000000000000000000000000000000008152f35b5034610277578060031936011261027757602067ffffffffffffffff600e5416604051908152f35b50346102775760606003193601126102775760043567ffffffffffffffff8082116105a657366023830112156105a65781600401359081116105a6576024820191602436918360051b0101116105a65761036961464f565b906044359164ffffffffff918284168085036105a2576001600160a01b03938460095416330361055e577f0000000000000000000000000000000000000000000000000000000000000000906001918060011b908082046002149015171561054a5784036105065760088411156104e35761041961040b6104056103f66103f136898e61494f565b6160fd565b61041061040b61040583614c79565b51615cf1565b614c79565b51600755614c86565b51600855959092955b4216926040519161043283614748565b84835283602080940152847fffffffffffffffffffffffffffffffffffffffffffff0000000000000000000069ffffffffff0000000000600a549360281b1692161717600a5560405196806060890160608a52526080880198928a5b8281106104d0578b8b7f3f678b7d550c0f8dfb5dce7c8568f6e139b01f5582a5613d669ebe77729a49fc8c808d8d8d8d6020850152604084015216930390a280f35b84358b529981019993810193830161048e565b6104f961040b6104f436878c61494f565b615cf1565b5160075595909295610422565b606460405162461bcd60e51b815260206004820152600460248201527f574c444c000000000000000000000000000000000000000000000000000000006044820152fd5b60248a634e487b7160e01b81526011600452fd5b606460405162461bcd60e51b815260206004820152600860248201527f4f4e4c59555044570000000000000000000000000000000000000000000000006044820152fd5b8680fd5b8280fd5b503461027757602060031936011261027757600435600d5481101561060f57600d6020925267ffffffffffffffff8160021c7fd7b6990105719101dabeb77144f2a3385c8033acd3af97e9423a695e81ad1eb5015460c06040519360061b161c168152f35b5080fd5b50346102775760206003193601126102775761062d614639565b6001600160a01b0390817f00000000000000000000000000000000000000000000000000000000000000001633036107eb576305a39a8061068e7f000000000000000000000000000000000000000000000000000000000000000042614a66565b10156107815760095491808316911691821561073d578183146106f9577fffffffffffffffffffffffff00000000000000000000000000000000000000001682176009557fc51fb6cc8e37fb27ff77886c5b33be204bb0a91dc410398c3a9bef63760c0b9d8380a380f35b606460405162461bcd60e51b815260206004820152600b60248201527f53414d45414444524553530000000000000000000000000000000000000000006044820152fd5b606460405162461bcd60e51b815260206004820152600a60248201527f494e5641444452455353000000000000000000000000000000000000000000006044820152fd5b608460405162461bcd60e51b815260206004820152603e60248201527f43616e6e6f74206368616e676520757064617465207765696768742072756e6e60448201527f65722061667465722033207965617273206f66206465706c6f796d656e7400006064820152fd5b606460405162461bcd60e51b815260206004820152600960248201527f4f4e4c5941444d494e00000000000000000000000000000000000000000000006044820152fd5b503461027757604060031936011261027757610849614639565b90602061085461464f565b9260646001600160a01b0391828060405197889586947f927da1050000000000000000000000000000000000000000000000000000000086523060048701521660248501521660448301527f0000000000000000000000000000000000000000000000000000000000000000165afa90811561091257906108db575b602090604051908152f35b506020813d60201161090a575b816108f560209383614781565b8101031261090657602090516108d0565b5f80fd5b3d91506108e8565b604051903d90823e3d90fd5b503461027757806003193601126102775760405190610120820182811067ffffffffffffffff821117610d145760405260608252806020830152806040830152606080830152606060808301528060a08301528060c08301528060e0830152806101008301526040517fca4f280300000000000000000000000000000000000000000000000000000000815230600482015281816024816001600160a01b037f0000000000000000000000000000000000000000000000000000000000000000165afa908115610d09578291610ce7575b50825260115460208301527f00000000000000000000000000000000000000000000000000000000000000006040830152600c54610a2c816147a4565b90610a3a6040519283614781565b808252827fdf6966c971051c3d54ec59162606531493a51404a002842f56009d7e5cf4a8c7602084015b838310610c8d57505050506060830152604051908180926020600d54918281520190600d84527fd7b6990105719101dabeb77144f2a3385c8033acd3af97e9423a695e81ad1eb593905b806003830110610c3857610ae6945490808310610c1b575b808310610bfb575b808310610bdb575b8210610bc7575b50500382614781565b608082015267ffffffffffffffff600e5481811660a084015260401c1660c0820152600f5460e082015267ffffffffffffffff6010541661010082015260405180916020825267ffffffffffffffff610100610b98610b53845161012060208801526101408701906148e8565b6020850151604087015260408501516060870152610b83606086015191601f1992838983030160808a01526149cd565b906080860151908783030160a0880152614a29565b928260a08201511660c08601528260c08201511660e086015260e0810151828601520151166101208301520390f35b60c01c82526020909101906001015f610add565b9192602060019167ffffffffffffffff8460801c16815201930191610ad6565b9192602060019167ffffffffffffffff8460401c16815201930191610ace565b9192602060019167ffffffffffffffff8416815201930191610ac6565b9160049193506080600191865467ffffffffffffffff8116825267ffffffffffffffff8160401c16602083015267ffffffffffffffff81841c16604083015260c01c6060820152019401920184929391610aae565b604051825480825283885260208089209083019189905b808210610ccf5750505060019282610cc185946020940382614781565b815201920192019190610a64565b90919260016020819286548152019401920190610ca4565b610d0391503d8084833e610cfb8183614781565b810190615580565b5f6109ef565b6040513d84823e3d90fd5b634e487b7160e01b5f52604160045260245ffd5b50346102775760e060031936011261027757610d42614639565b610d4a61464f565b90604435916064359160843560ff81168103610f7957834211610f4d57610d8b826001600160a01b03165f52600260205260405f2080549060018201905590565b9060405160208101917f6e71edae12b1b97f4d1f60370fef10105fa2faae0126114a169c64845d6126c983526001600160a01b039687861694856040850152888816606085015289608085015260a084015260c083015260c0825260e082019082821067ffffffffffffffff831117610d14578793610e6193610e5893604052519020610e166158ac565b90604051917f190100000000000000000000000000000000000000000000000000000000000083526002830152602282015260c43591604260a4359220616649565b909291926166cb565b16818103610f1f576040517fe1f21c670000000000000000000000000000000000000000000000000000000081526001600160a01b03848116600483015285166024820152604481018790528790602081606481857f00000000000000000000000000000000000000000000000000000000000000008c165af18015610d0957610ee9575080f35b6020813d602011610f17575b81610f0260209383614781565b8101031261060f57610f1390614aab565b5080f35b3d9150610ef5565b7f4b800e46000000000000000000000000000000000000000000000000000000008752600452602452604485fd5b602486857f62791302000000000000000000000000000000000000000000000000000000008252600452fd5b8580fd5b50346109065760206003193601126109065767ffffffffffffffff60043511610906576004353603906102606003198301126109065760405191610220830183811067ffffffffffffffff821117610d14576040526004356004013567ffffffffffffffff811161090657610ff9906004369181350101614897565b83526024600435013567ffffffffffffffff811161090657611022906004369181350101614897565b60208401526044600435013567ffffffffffffffff811161090657600435013660238201121561090657600481013561105a816147a4565b916110686040519384614781565b8183526024602084019260071b8201019036821161090657602401915b818310612b665750505060408401526064600435013567ffffffffffffffff8111610906576060916110df7fffffffffffffffffffffffffffffffffffffffffffffffffffffffffffffff7c9260043691813501016147bc565b838601520112610906576040516110f5816146fc565b611103608460043501614665565b815261111360a460043501614665565b602082015261112660c460043501614665565b6040820152608083015260e4600435013560a083015261114b61010460043501614665565b60c083015261115f61012460043501614942565b60e083015261117361014460043501614942565b610100830152600435610164810135610120840152610184013567ffffffffffffffff8111610906576111ad90600436918135010161499d565b6101408301526101a4600435013567ffffffffffffffff81116109065761014060031982600435013603011261090657604051906111ea826146df565b600481813501013567ffffffffffffffff811161090657366023828460043501010112156109065760048183823501010135611225816147a4565b916112336040519384614781565b81835260208301903660248460051b83886004350101010111610906579060248286600435010101915b60248460051b8288600435010101018310612b4a57505050908352506004358101602401356001600160a01b0381169003610906576004358101602481013560208401526044013567ffffffffffffffff811161090657366023828460043501010112156109065760048183823501010135906112d9826147a4565b916112e76040519384614781565b808352602083013660248360051b858860043501010101116109065760248386600435010101905b60248360051b8588600435010101018210612a915750505050604083015260043581016064013561ffff81169003610906576004358101606481013560608401526084013567ffffffffffffffff811161090657366023828460043501010112156109065760048183823501010135611387816147a4565b916113956040519384614781565b81835260208301903660248460051b83886004350101010111610906579060248286600435010101915b60248460051b8288600435010101018310612a75575050505060808301526113ed60a48260043501016149b8565b60a083015261140260c48260043501016149b8565b60c083015261141760e48260043501016149b8565b60e08301526101048160043501013567ffffffffffffffff811161090657366023828460043501010112156109065760048183823501010135611459816147a4565b916114676040519384614781565b818352602083013660248460051b848860043501010101116109065760248286600435010101905b60248460051b8488600435010101018210612a3b57505050506101008301526114bf906004350161012401614665565b6101208201526101608301526101c4600435013567ffffffffffffffff8111610906576114f390600436918135010161499d565b6101808301526101e4600435013567ffffffffffffffff81116109065761152190600436918135010161499d565b6101a08301526004356102048101356101c08401526102248101356101e0840152610244013567ffffffffffffffff811161090657366023826004350101121561090657600481813501013590611577826147a4565b916115856040519384614781565b80835260208301913660248360051b8360043501010111610906576024816004350101925b60248360051b83600435010101841061297157505050506102008301527ff0c57e16840df040f15088dc2f81fe391c3923bec73e23a9662efc9c229c6a005467ffffffffffffffff81161580612963575b600167ffffffffffffffff8316149081612959575b159081612950575b506129285760017fffffffffffffffffffffffffffffffffffffffffffffffff00000000000000008216177ff0c57e16840df040f15088dc2f81fe391c3923bec73e23a9662efc9c229c6a005560ff8160401c16156128d3575b610160830151515180151590816128c3575b5080612894575b15612850576101608301515180519067ffffffffffffffff8211610d1457680100000000000000008211610d14576020906012548360125580841061281a575b500160125f525f5b8281106127dd575050506101608301515151601f1961170a6116f4836147a4565b926117026040519485614781565b8084526147a4565b0136602083013780519067ffffffffffffffff8211610d1457680100000000000000008211610d1457602090600b5483600b558084106127a7575b5001600b5f525f5b82811061276a575050505f5b6101608401515180518210156117f45761177b826001600160a01b0392614d18565b511690600b548110156117e057600191600b5f52817f0175b7a638427703f0dbe7bb9bbf987a2551717b34e79f33b5b1008d1fa01db901907fffffffffffffffffffffffff000000000000000000000000000000000000000082541617905501611759565b634e487b7160e01b5f52603260045260245ffd5b8285856101c082015115612726576101c08201516011556001600160a01b03602061016084015161ffff6060820151167fffffffffffffffffffffffffffffffffffffffffffffffff00000000000000006010541617601055015116156126e2575f5b6080610160840151015180518210156118ed5761187d8267ffffffffffffffff92614d18565b51165f811390816118db575b501561189757600101611857565b606460405162461bcd60e51b815260206004820152600660248201527f494e564c414d00000000000000000000000000000000000000000000000000006044820152fd5b670de0b6b3a764000091501285611889565b8285856080610160820151015151600181149081156126d2575b501561268e5767ffffffffffffffff60a06101608301510151165f8113908161267b575b50156126375767ffffffffffffffff60c061016083015101511661014082015151801561262357670de0b6b3a76400000513806125ff575b156125bb576040610160820151015151156125775760406101608201510151516101408201515103612533576119e960206101608301516101006001600160a01b0383830151169101519060405180809581947f0df61b8f0000000000000000000000000000000000000000000000000000000083528660048401526024830190615693565b03915afa9081156121e3575f916124f9575b50156124b55767ffffffffffffffff60e061016083015101511680151590816124a2575b501561245e576080610160820151015180519067ffffffffffffffff8211610d1457680100000000000000008211610d1457602090600d5483600d558084106123d8575b500190600d5f525f5b8160021c8110612372575060031981168082036122f3575b50505061010061016082015167ffffffffffffffff60a082015116600e54907fffffffffffffffffffffffffffffffff000000000000000000000000000000006fffffffffffffffff000000000000000060c085015160401b1692161717600e5567ffffffffffffffff60e082015116600f550151805190680100000000000000008211610d1457600c5482600c55808310612284575b5060200190600c5f527fdf6966c971051c3d54ec59162606531493a51404a002842f56009d7e5cf4a8c7915f905b8282106121ee57505050506001600160a01b036020610160830151015116610180820151906101a08301516101408401515191803b1561090657611bd15f611be3958195604051978896879586947f44a01eb3000000000000000000000000000000000000000000000000000000008652306004870152608060248701526084860190615c04565b90600319858303016044860152615c04565b90606483015203925af180156121e3576121d0575b50826001600160a01b036009541661016083015190803b156105a6578291829160405180948180947f727cc6b6000000000000000000000000000000000000000000000000000000008252602060048301526001600160a01b03610120611d6b611cf8611cb6611c76865161014060248a01526101648901906148e8565b85602088015116604489015260408701517fffffffffffffffffffffffffffffffffffffffffffffffffffffffffffffffdc8983030160648a0152615603565b61ffff606087015116608488015260808601517fffffffffffffffffffffffffffffffffffffffffffffffffffffffffffffffdc8883030160a4890152614a29565b67ffffffffffffffff60a08601511660c487015267ffffffffffffffff60c08601511660e487015267ffffffffffffffff60e0860151166101048701526101008501517fffffffffffffffffffffffffffffffffffffffffffffffffffffffffffffffdc878303016101248801526149cd565b9201511661014483015203925af18015610d09576121bc575b5050610140810151611d9860075415615c37565b611da460085415615c37565b80517f00000000000000000000000000000000000000000000000000000000000000000361219457838151808060011b046002148115171561218057611df0906001959294951b614c48565b92859167ffffffffffffffff600e5460401c16915b8451841015611eb55782611e198587614d18565b5112611e8d57611e298486614d18565b51611e348588614d18565b52611e3f8486614d18565b51908180820112898212908015821691151617611e795790600191019388611e71611e6b885184614d2c565b89614d18565b520192611e05565b602489634e487b7160e01b81526011600452fd5b6004887fbd393583000000000000000000000000000000000000000000000000000000008152fd5b8686670de0b6b3a76400008a930361215857908160086101609351115f1461214357611ee961040b6104056103f6846160fd565b516008555b7f3f678b7d550c0f8dfb5dce7c8568f6e139b01f5582a5613d669ebe77729a49fc64ffffffffff421691826020604051611f2781614748565b8281520152600a54837fffffffffffffffffffffffffffffffffffffffffffff0000000000000000000069ffffffffff00000000004260281b1692161717600a55611f7d60405191606083526060830190615c04565b9280602083015260408201528030930390a20151916001600160a01b036020840151166040840151936080810151946101008201519167ffffffffffffffff60a0820151169267ffffffffffffffff60c083015116906120086001600160a01b0361012061ffff60608701511695015116946040519788526101206020890152610120880190615603565b86810360408801526020808b5192838152019a0190895b818110612123578a60ff8b7f0fac2c21f556c18c8ccc516e0c773f53ac94c19685206bc8dabe8a189cb1f43a8f8d8d8d8d8d612064868f878099036060890152615693565b93608086015260a085015260c084015260e0830152336101008301520390a160401c161561208f5780f35b7fffffffffffffffffffffffffffffffffffffffffffffff00ffffffffffffffff7ff0c57e16840df040f15088dc2f81fe391c3923bec73e23a9662efc9c229c6a0054167ff0c57e16840df040f15088dc2f81fe391c3923bec73e23a9662efc9c229c6a00557fc7f505b2f371ae2175ee4913f4499e1f2633a7b5936321eed1cdaeb6115181d2602060405160018152a180f35b825167ffffffffffffffff168c5260209b8c019b9092019160010161201f565b61214f61040b82615cf1565b51600755611eee565b6004837f39cf114e000000000000000000000000000000000000000000000000000000008152fd5b602486634e487b7160e01b81526011600452fd5b6004847faaad13f7000000000000000000000000000000000000000000000000000000008152fd5b6121c590614734565b6105a6578284611d84565b6121db919350614734565b5f9183611bf8565b6040513d5f823e3d90fd5b805180519067ffffffffffffffff8211610d1457680100000000000000008211610d1457855482875580831061225d575b50602001855f5260205f205f5b838110612249575050505060016020819201940191019092611b49565b60019060208451940193818401550161222c565b865f5260205f20908382015b818301811061227957505061221f565b5f8155600101612269565b7fdf6966c971051c3d54ec59162606531493a51404a002842f56009d7e5cf4a8c7908382015b81830181106122ba575050611b1b565b80545f8255806122ce575b506001016122aa565b815f5260205f2090815b81830181106122e85750506122c5565b5f81556001016122d8565b915f925f5b81840381106123325750505060021c7fd7b6990105719101dabeb77144f2a3385c8033acd3af97e9423a695e81ad1eb50155838080611a84565b909193602061236860019267ffffffffffffffff885116908560031b60031b9167ffffffffffffffff809116831b921b19161790565b95019291016122f8565b5f805b600481106123aa57507fd7b6990105719101dabeb77144f2a3385c8033acd3af97e9423a695e81ad1eb5820155600101611a6c565b845190949160019160209167ffffffffffffffff600689901b81811b199092169216901b1792019401612375565b612421906003850160021c60037fd7b6990105719101dabeb77144f2a3385c8033acd3af97e9423a695e81ad1eb592601888831b1680612427575b500160021c820191016155ed565b86611a63565b7fd7b6990105719101dabeb77144f2a3385c8033acd3af97e9423a695e81ad1eb48401905f198254918a03851b1c1690558b612413565b606460405162461bcd60e51b815260206004820152600b60248201527f494e564d415854524144450000000000000000000000000000000000000000006044820152fd5b670429d069189e00009150111584611a1f565b606460405162461bcd60e51b815260206004820152600960248201527f494e56524c4550524d00000000000000000000000000000000000000000000006044820152fd5b90506020813d60201161252b575b8161251460209383614781565b810103126109065761252590614aab565b846119fb565b3d9150612507565b606460405162461bcd60e51b815260206004820152600760248201527f4f4c4e57454947000000000000000000000000000000000000000000000000006044820152fd5b606460405162461bcd60e51b815260206004820152600960248201527f4e4f50524f564f524300000000000000000000000000000000000000000000006044820152fd5b606460405162461bcd60e51b815260206004820152600a60248201527f494e565f414253574754000000000000000000000000000000000000000000006044820152fd5b50662386f26fc1000067ffffffffffffffff60c06101608401510151161215611963565b634e487b7160e01b5f52601260045260245ffd5b606460405162461bcd60e51b815260206004820152600860248201527f494e565f45504d580000000000000000000000000000000000000000000000006044820152fd5b670de0b6b3a7640000915013158461192b565b606460405162461bcd60e51b815260206004820152601760248201527f456974686572207363616c6172206f7220766563746f720000000000000000006044820152fd5b9050610140820151511484611907565b606460405162461bcd60e51b815260206004820152600c60248201527f496e76616c69642072756c6500000000000000000000000000000000000000006044820152fd5b606460405162461bcd60e51b815260206004820152600a60248201527f494e564f52435354414c000000000000000000000000000000000000000000006044820152fd5b60019060206001600160a01b03845116930192817f0175b7a638427703f0dbe7bb9bbf987a2551717b34e79f33b5b1008d1fa01db901550161174d565b6127d790847f0175b7a638427703f0dbe7bb9bbf987a2551717b34e79f33b5b1008d1fa01db991820191016155ed565b5f611745565b60019060206001600160a01b03845116930192817fbb8a6a4669ba250d26cd7a459eca9d215f8307e33aebe50379bc5a3617ec34440155016116d3565b61284a90847fbb8a6a4669ba250d26cd7a459eca9d215f8307e33aebe50379bc5a3617ec344491820191016155ed565b5f6116cb565b606460405162461bcd60e51b815260206004820152600a60248201527f494e5641535357454947000000000000000000000000000000000000000000006044820152fd5b50610140830151517f00000000000000000000000000000000000000000000000000000000000000001461168b565b905061014084015151145f611684565b680100000000000000017fffffffffffffffffffffffffffffffffffffffffffffff0000000000000000008216177ff0c57e16840df040f15088dc2f81fe391c3923bec73e23a9662efc9c229c6a0055611672565b7ff92ee8a9000000000000000000000000000000000000000000000000000000005f5260045ffd5b9050155f611618565b303b159150611610565b5060ff8160401c16156115fb565b833567ffffffffffffffff811161090657366043828560043501010112156109065760248184600435010101356129a7816147a4565b916129b56040519384614781565b818352602083013660448460051b848960043501010101116109065760448287600435010101905b60448460051b8489600435010101018210612a055750505090825250602093840193016115aa565b813567ffffffffffffffff811161090657602091612a30839260443691888d60043501010101614897565b8152019101906129dd565b81359067ffffffffffffffff82116109065760208091612a68602494853691898d6004350101010161499d565b815201920191905061148f565b602080602493612a84866149b8565b81520193019291506113bf565b813567ffffffffffffffff81116109065736604382878a6004350101010112156109065760248186896004350101010135612acb816147a4565b91612ad96040519384614781565b81835260208301903660448b838b8760051b9260043501010101011161090657604481898c60043501010101915b60448b838b8760051b9260043501010101018310612b3257505050908252506020918201910161130f565b60208091612b3f85614665565b815201920191612b07565b602080602493612b5986614665565b815201930192915061125d565b6080833603126109065760405190612b7d82614718565b612b8684614665565b8252602084013560028110156109065760208301526040840135906001600160a01b03821682036109065782602092604060809501526060612bc9818801614942565b90820152815201920191611085565b34610906575f600319360112610906576040517fb45090f90000000000000000000000000000000000000000000000000000000081523060048201526020816024816001600160a01b037f0000000000000000000000000000000000000000000000000000000000000000165afa80156121e3575f906108db57602090604051908152f35b3461090657602060031936011261090657600435601254811015610906576001600160a01b0360209160125f527fbb8a6a4669ba250d26cd7a459eca9d215f8307e33aebe50379bc5a3617ec3444015416604051908152f35b34610906575f6003193601126109065760206040516509184e72a0008152f35b346109065760406003193601126109065760043560243590600c54811015610906577fdf6966c971051c3d54ec59162606531493a51404a002842f56009d7e5cf4a8c701908154811015610906576020915f52815f200154604051908152f35b34610906575f6003193601126109065760206040516709b6e64a8ec600008152f35b34610906575f600319360112610906576040517f535cfd8a0000000000000000000000000000000000000000000000000000000081523060048201525f816024816001600160a01b037f0000000000000000000000000000000000000000000000000000000000000000165afa80156121e3576102aa915f91612deb575b506040519182916020835260208301906148b5565b612e0791503d805f833e612dff8183614781565b810190614b19565b82612dd6565b34610906575f6003193601126109065760206040517f00000000000000000000000000000000000000000000000000000000000000008152f35b34610906575f600319360112610906576001600160a01b036040517f67e0e0760000000000000000000000000000000000000000000000000000000081523060048201525f81602481857f0000000000000000000000000000000000000000000000000000000000000000165afa80156121e3575f915f935f915f93612f5f575b50612ede604051946080865260808601906148e8565b6020858203818701528080885193848152019701925f905b838210612f235787806102aa89612f158d8b85820360408701526148b5565b9083820360608501526148b5565b909192939783606060019260408c518051612f3d81614924565b8352808501518716858401520151151560408201520199019493920190612ef6565b9450925050503d805f843e612f748184614781565b8201906080838303126109065782519267ffffffffffffffff938481116109065783612fa191830161550f565b906020938482015186811161090657820181601f8201121561090657805190612fc9826147a4565b96612fd76040519889614781565b82885280880181606080950284010192858411610906578201905b83821061303857505050505060408201518681116109065781613016918401614ab8565b9560608301519081116109065761302d9201614ab8565b909293909185612ec8565b8482870312610906576040519061304e826146fc565b8251600281101561090657825283830151908a8216820361090657828592838995015261307d60408601614aab565b6040820152815201910190612ff2565b34610906575f600319360112610906576040517fca4f28030000000000000000000000000000000000000000000000000000000081523060048201525f816024816001600160a01b037f0000000000000000000000000000000000000000000000000000000000000000165afa80156121e3576102aa915f91613120575b506040519182916020835260208301906148e8565b61313491503d805f833e610cfb8183614781565b8261310b565b34610906576040600319360112610906576131aa6020613158614639565b6040517fbeabacc80000000000000000000000000000000000000000000000000000000081523360048201526001600160a01b0390911660248083019190915235604482015291829081906064820190565b03815f6001600160a01b037f0000000000000000000000000000000000000000000000000000000000000000165af180156121e3576131ef575b602060405160018152f35b6020813d60201161321e575b8161320860209383614781565b810103126109065761321990614aab565b6131e4565b3d91506131fb565b346109065760406003193601126109065760043567ffffffffffffffff8111610906576132579036906004016147bc565b60243560028110156109065761326c81614924565b6133db5760045b61327b6159e1565b9080600314613387578060041461330357806001146132c3576002146132af57634e487b7160e01b5f52605160045260245ffd5b6020916132bb91616776565b604051908152f35b50670de0b6b3a7640000908181029181830414901517156132ef576020916132ea916159d7565b6132bb565b634e487b7160e01b5f52601160045260245ffd5b505f9190670de0b6b3a76400005b815184101561334d5761334560019161333f61332d8787614d18565b516133388887614d18565b519061629b565b90616326565b930192613311565b92505050801561335f576020906132bb565b7f26543689000000000000000000000000000000000000000000000000000000005f5260045ffd5b505f9190670de0b6b3a76400005b815184101561334d57670de0b6b3a76400006133d26001926133cc6133ba8888614d18565b516133c58988614d18565b5190616538565b906155da565b04930192613395565b6003613273565b34610906575f600319360112610906576040516004545f8261340383614a73565b91828252602093600190856001821691825f146134a0575050600114613445575b5061343192500383614781565b6102aa604051928284938452830190614614565b84915060045f527f8a35acfbc15ff81a39ae7d344fd709f28e8600b4aa8c65c6b64bfe7fe36bd19b905f915b858310613488575050613431935082010185613424565b80548389018501528794508693909201918101613471565b7fffffffffffffffffffffffffffffffffffffffffffffffffffffffffffffff00168582015261343195151560051b85010192508791506134249050565b34610906575f60031936011261090657602067ffffffffffffffff600e5460401c16604051908152f35b34610906575f6003193601126109065760206040516001600160a01b037f0000000000000000000000000000000000000000000000000000000000000000168152f35b34610906575f600319360112610906576135847f0000000000000000000000000000000000000000000000000000000000000000616348565b6135ad7f000000000000000000000000000000000000000000000000000000000000000061647a565b9060405191602083019280841067ffffffffffffffff851117610d14576136236102aa92613615956040525f83526040519586957f0f00000000000000000000000000000000000000000000000000000000000000875260e0602088015260e0870190614614565b908582036040870152614614565b904660608501523060808501525f60a085015283820360c08501526148b5565b34610906575f600319360112610906576040517ff29486a10000000000000000000000000000000000000000000000000000000081523060048201526101a09081816024816001600160a01b037f0000000000000000000000000000000000000000000000000000000000000000165afa9081156121e3576040925f926136dc575b505060608282015191015182519182526020820152f35b6136fb9250803d10613702575b6136f38183614781565b810190614b3f565b82806136c5565b503d6136e9565b34610906576020600319360112610906576001600160a01b0361372a614639565b165f526002602052602060405f2054604051908152f35b34610906575f6003193601126109065760206001600160a01b0360095416604051908152f35b3461090657600319602081360112610906576004359067ffffffffffffffff908183116109065760e0908336030112610906576040519160e0830183811083821117610d145760405280600401356002811015610906578352602481013560208401526044810135828111610906576137e690600436918401016147bc565b6040840152606481013560608401526084810135608084015261380b60a48201614665565b60a084015260c4810135918211610906570136602382011215610906576020916138426132bb923690602460048201359101614851565b60c082015261384f61584e565b6150bf565b346109065760208060031936011261090657604481613871614639565b6040517ff7888aec0000000000000000000000000000000000000000000000000000000081523060048201526001600160a01b03918216602482015292839182907f0000000000000000000000000000000000000000000000000000000000000000165afa9081156121e3575f916138ed575b50604051908152f35b90508181813d8311613913575b6139048183614781565b810103126109065751826138e4565b503d6138fa565b34610906575f600319360112610906577f18e79a20000000000000000000000000000000000000000000000000000000005f5260045ffd5b34610906575f60031936011261090657602060405167016345785d8a00008152f35b34610906575f60031936011261090657335f908152600260205260409020805460018101909155005b346109065760207f8c5be1e5ebec7d5bd14f71427d1e84f3dd0314c0f7b2291e5b200ac8c7c3b9256139ce3661481c565b929193906139da61584e565b6001600160a01b03809160405195865216941692a3005b34610906575f600319360112610906576040516005545f82613a1283614a73565b91828252602093600190856001821691825f146134a0575050600114613a3f575061343192500383614781565b84915060055f527f036b6384b5eca791c62761152d0c79bb0604c104a5fb6f4eb0703f3154bb3db0905f915b858310613a82575050613431935082010185613424565b80548389018501528794508693909201918101613a6b565b346109065760406003193601126109065767ffffffffffffffff60043581811161090657613acc903690600401614897565b60243591821161090657613af46102aa91613aee613b0b943690600401614897565b90614e16565b604092919251938493604085526040850190614614565b908382036020850152614614565b34610906575f6003193601126109065760206132bb6158ac565b34610906575f60031936011261090657602060405160128152f35b34610906575f6003193601126109065760206040517f6e71edae12b1b97f4d1f60370fef10105fa2faae0126114a169c64845d6126c98152f35b34610906575f6003193601126109065760206040516729a2241af62c00008152f35b346109065760207fddf252ad1be2c89b69c2b068fc378daa952ba7f163c4a11628f55a4df523b3ef6139ce3661481c565b346109065760846020613bed3661481c565b6040517f15dacbea0000000000000000000000000000000000000000000000000000000081523360048201526001600160a01b0393841660248201529183166044830152606482015292839182905f907f0000000000000000000000000000000000000000000000000000000000000000165af180156121e3576131ef57602060405160018152f35b34610906575f6003193601126109065760206132bb614d78565b346109065760606003193601126109065760043567ffffffffffffffff811161090657613cc19036906004016147bc565b60443590613d2d602435613d048164ffffffffff613cfd42821682613ce4614d39565b8160208201511680421015613ed0575b50511690614d61565b1694614d18565b51927f0000000000000000000000000000000000000000000000000000000000000000916157e0565b6001919082841115613eca5760025b80600314613e595780600414613deb5780600114613dc057600214613d6f57634e487b7160e01b5f52605160045260245ffd5b8015613d98576020936132bb9361333f926ec097ce7bc90715b34b9f0fffffffff04019061629b565b7f0a0c22c7000000000000000000000000000000000000000000000000000000005f5260045ffd5b5080939250156126235761333f6132bb926020946ec097ce7bc90715b34b9f1000000000049061629b565b50670de0b6b3a764000093925f91815b613e19575b505050821561335f5761333f6132bb926020949061629b565b909194670de0b6b3a764000051861015613e53579082613e4b819361333f613e418a86614d18565b516133388b614cf7565b960192613dfb565b94613e00565b50670de0b6b3a764000093925f91815b613e8657505050821561335f5761333f6132bb926020949061629b565b909194670de0b6b3a764000051861015613e53579082670de0b6b3a7640000613ec182946133cc613eb78b87614d18565b516133c58c614cf7565b04960192613e69565b82613d3c565b92508b613cf4565b34610906575f60031936011261090657604051613ef4816146df565b60608152606060208201525f60408201525f60608201525f60808201525f60a0820152606060c0820152606060e08201525f6101008201525f6101208201526040517f535cfd8a0000000000000000000000000000000000000000000000000000000081523060048201525f816024816001600160a01b037f0000000000000000000000000000000000000000000000000000000000000000165afa9081156121e3575f91614412575b5081526040517f7e361bde0000000000000000000000000000000000000000000000000000000081523060048201525f816024816001600160a01b037f0000000000000000000000000000000000000000000000000000000000000000165afa9081156121e3575f916143b5575b50602082015261401a614d78565b60408201526040517ff29486a10000000000000000000000000000000000000000000000000000000081523060048201526101a0816024816001600160a01b037f0000000000000000000000000000000000000000000000000000000000000000165afa80156121e357610120915f91614394575b5060e081015115156060840152610100810151151560808401520151151560a08201526140db7f0000000000000000000000000000000000000000000000000000000000000000614c48565b60c08201526141097f0000000000000000000000000000000000000000000000000000000000000000614c48565b60e0820152614119600754615708565b614124600854615708565b60047f000000000000000000000000000000000000000000000000000000000000000010801561438c577f0000000000000000000000000000000000000000000000000000000000000000905b1561432b575f5b5f5b7f00000000000000000000000000000000000000000000000000000000000000008110614283578564ffffffffff60206141b2614d39565b8281511661010085015201511661012082015260405180916020825264ffffffffff6101206142696141f284516101406020880152610160870190614679565b614253614211602087015192601f1993848a83030160408b0152614679565b604087015160608901526060870151151560808901526080870151151560a089015260a0870151151560c089015260c0870151838983030160e08a01526146ac565b9060e086015190878303016101008801526146ac565b928261010082015116828601520151166101408301520390f35b60048110156142d3578061429960019287614d18565b516142a88260c08a0151614d18565b526142bc6142b68583614d2c565b87614d18565b516142cb8260e08a0151614d18565b525b0161417a565b806003198101116132ef57806142ef6003196001930186614d18565b516142fe8260c08a0151614d18565b52614316614310846003198401614d2c565b86614d18565b516143258260e08a0151614d18565b526142cd565b6003197f0000000000000000000000000000000000000000000000000000000000000000017f000000000000000000000000000000000000000000000000000000000000000081111561417857634e487b7160e01b5f52601160045260245ffd5b600490614171565b6143af91506101a03d6101a011613702576136f38183614781565b8361408f565b90503d805f833e6143c68183614781565b8101906040818303126109065780519167ffffffffffffffff9283811161090657816143f3918401614ab8565b9260208301519081116109065761440a9201614ab8565b90508261400c565b61442691503d805f833e612dff8183614781565b82613f9e565b34610906575f600319360112610906576020601154604051908152f35b34610906576040600319360112610906576131aa6020614467614639565b6040517fe1f21c670000000000000000000000000000000000000000000000000000000081523360048201526001600160a01b0390911660248083019190915235604482015291829081906064820190565b34610906575f600319360112610906576040516003545f826144da83614a73565b91828252602093600190856001821691825f146134a0575050600114614507575061343192500383614781565b84915060035f527fc2575a0e9e593c00f959f8c92f12db2869c3395a3b0502d05e2516446f71f85b905f915b85831061454a575050613431935082010185613424565b80548389018501528794508693909201918101614533565b34610906575f6003193601126109065760206305a39a806145a37f000000000000000000000000000000000000000000000000000000000000000042614a66565b10604051908152f35b3461090657602060031936011261090657600435907fffffffff000000000000000000000000000000000000000000000000000000008216809203610906577f01ffc9a700000000000000000000000000000000000000000000000000000000602092148152f35b90601f19601f602080948051918291828752018686015e5f8582860101520116010190565b600435906001600160a01b038216820361090657565b602435906001600160a01b038216820361090657565b35906001600160a01b038216820361090657565b9081518082526020808093019301915f5b828110614698575050505090565b83518552938101939281019260010161468a565b9081518082526020808093019301915f5b8281106146cb575050505090565b8351855293810193928101926001016146bd565b610140810190811067ffffffffffffffff821117610d1457604052565b6060810190811067ffffffffffffffff821117610d1457604052565b6080810190811067ffffffffffffffff821117610d1457604052565b67ffffffffffffffff8111610d1457604052565b6040810190811067ffffffffffffffff821117610d1457604052565b610120810190811067ffffffffffffffff821117610d1457604052565b90601f601f19910116810190811067ffffffffffffffff821117610d1457604052565b67ffffffffffffffff8111610d145760051b60200190565b9080601f830112156109065760209082356147d6816147a4565b936147e46040519586614781565b81855260208086019260051b82010192831161090657602001905b82821061480d575050505090565b813581529083019083016147ff565b6003196060910112610906576001600160a01b0390600435828116810361090657916024359081168103610906579060443590565b92919267ffffffffffffffff8211610d14576040519161487b6020601f19601f8401160184614781565b829481845281830111610906578281602093845f960137010152565b9080601f83011215610906578160206148b293359101614851565b90565b9081518082526020808093019301915f5b8281106148d4575050505090565b8351855293810193928101926001016148c6565b9081518082526020808093019301915f5b828110614907575050505090565b83516001600160a01b0316855293810193928101926001016148f9565b6002111561492e57565b634e487b7160e01b5f52602160045260245ffd5b3590811515820361090657565b929161495a826147a4565b916149686040519384614781565b829481845260208094019160051b810192831161090657905b82821061498e5750505050565b81358152908301908301614981565b9080601f83011215610906578160206148b29335910161494f565b359067ffffffffffffffff8216820361090657565b90808251908181526020809101926020808460051b8301019501935f915b8483106149fb5750505050505090565b9091929394958480614a1983601f1986600196030187528a516146ac565b98019301930191949392906149eb565b9081518082526020808093019301915f5b828110614a48575050505090565b835167ffffffffffffffff1685529381019392810192600101614a3a565b919082039182116132ef57565b90600182811c92168015614aa1575b6020831014614a8d57565b634e487b7160e01b5f52602260045260245ffd5b91607f1691614a82565b5190811515820361090657565b9080601f8301121561090657815190602091614ad3816147a4565b93614ae16040519586614781565b81855260208086019260051b82010192831161090657602001905b828210614b0a575050505090565b81518152908301908301614afc565b9060208282031261090657815167ffffffffffffffff8111610906576148b29201614ab8565b809103906101a0821261090657608060405192614b5b846146df565b1261090657604051614b6c81614718565b614b7582614aab565b8152614b8360208301614aab565b6020820152614b9460408301614aab565b6040820152614ba560608301614aab565b606082015282526080810151602083015260a0810151604083015260c0810151606083015260e081015164ffffffffff81168103610906576080830152610100908181015163ffffffff8116810361090657614c41916101809160a086015261012093614c13858301614aab565b60c0870152614c256101408301614aab565b60e0870152614c376101608301614aab565b9086015201614aab565b9082015290565b90614c52826147a4565b614c5f6040519182614781565b828152601f19614c6f82946147a4565b0190602036910137565b8051156117e05760200190565b8051600110156117e05760400190565b8051600210156117e05760600190565b8051600310156117e05760800190565b8051600410156117e05760a00190565b8051600510156117e05760c00190565b8051600610156117e05760e00190565b8051600710156117e0576101000190565b670de0b6b3a7640000518110156117e05760051b670de0b6b3a76400200190565b80518210156117e05760209160051b010190565b919082018092116132ef57565b60405190614d4682614748565b816020600a5464ffffffffff90818116845260281c16910152565b64ffffffffff91821690821603919082116132ef57565b6040517fe4dc2aa40000000000000000000000000000000000000000000000000000000081523060048201526020816024816001600160a01b037f0000000000000000000000000000000000000000000000000000000000000000165afa9081156121e3575f91614de7575090565b90506020813d602011614e0e575b81614e0260209383614781565b81010312610906575190565b3d9150614df5565b905f9060068054925b838110614e9b575050505050604051614e3781614748565b600581527f6572726f72000000000000000000000000000000000000000000000000000000602082015290604051614e6e81614748565b601081527f64657461696c206e6f7420666f756e6400000000000000000000000000000000602082015290565b815f52807ff652222313e28459528d920b65115c16c04f3efc82aaedc97be59f3f377c0d3f01805490614ecd826147a4565b91604090614edd82519485614781565b808452602092838501905f52835f205f915b838310614ff15750505050614f0383614c79565b518151614f2a84828180820195805191829101875e81015f83820152038084520182614781565b519020888251614f5485828180820195805191829101875e81015f83820152038084520182614781565b519020149182614f8c575b5050614f6e5750600101614e1f565b95945050505050614f88614f8183614c96565b5192614ca6565b5190565b909150614f9883614c86565b518251614fbf83828180820195805191829101875e81015f83820152038084520182614781565b5190209151614fe68282019282895180838c01875e81015f83820152038084520182614781565b519020145f80614f5f565b8451825491905f61500184614a73565b8083526001948a86821691825f1461508457505060011461503e575b5091816150308a93600196950382614781565b815201920192019190614eef565b9050989e9d9c9b9a9998845f52885f20905f915b81831061507157509e9f9d9e509b9c9a9b999a9899810188018161501d565b80548484018c0152918a01918501615052565b7fffffffffffffffffffffffffffffffffffffffffffffffffffffffffffffff00168582015291151560051b8401909101915082905061501d565b6150c7614d39565b7f00000000000000000000000000000000000000000000000000000000000000009061511064ffffffffff91828042169181602082015116804210156155075750511690614d61565b16906060830180519260049384811080806154f8575b81156154db575b50156154ba57508151926080860151905f602060405161514c81614748565b82815201528185878381841061548857505050506003199485810190811161547557918581019081116154755794810190811161543b57906151b76151cd9392956151c66151bd8561519f600854615708565b956151b76151af8c830189614d18565b519188614d18565b516165d5565b97820184614d18565b5192614d18565b918260206040516151dd81614748565b838152015291935b80516151f081614924565b6151f981614924565b615363576020810180519360408301966152168851865190614d18565b5194600f54968796615232670de0b6b3a7640000998a926155da565b041061533c578851905161524591614d18565b5161525860808a51960195865190614d18565b51935187615265836155a6565b048111615315579061527a6152809282614d2c565b90616776565b9186810290808204881490151715615302576152cb936152b36152d19796946152ad8a956152c0956159d7565b9061629b565b83818103911002906155da565b049651905190614d18565b516155da565b0482116152dc575090565b7f27e92f0f000000000000000000000000000000000000000000000000000000005f525ffd5b601188634e487b7160e01b5f525260245ffd5b887f340a4533000000000000000000000000000000000000000000000000000000005f525ffd5b877f27e92f0f000000000000000000000000000000000000000000000000000000005f525ffd5b906020829593950191825193604082019661538660808951940193845190614d18565b5194600f549687966153a2670de0b6b3a7640000998a926155da565b041061533c576153c46153b88a51875190614d18565b51948a51905190614d18565b519051876153d1836155a6565b04811161544e57916153ee8261527a6153f496956152ad95614a66565b92616776565b907ffffffffffffffffffffffffffffffffffffffffffffffffff21f494c589c0000820191821161543b57916154316152cb926152d19594616326565b9651905190614d18565b601186634e487b7160e01b5f525260245ffd5b887f64590b9f000000000000000000000000000000000000000000000000000000005f525ffd5b601187634e487b7160e01b5f525260245ffd5b919396959450919650116154b2575b6151b76151cd9394956151c66151bd8561519f600754615708565b859350615497565b926154ca81836154d594966157e0565b9360808701516157e0565b936151e5565b905015806154ea575b5f61512d565b5084608087015110156154e4565b90508560808801511090615126565b92505f613cf4565b9080601f830112156109065781519060209161552a816147a4565b936155386040519586614781565b81855260208086019260051b82010192831161090657602001905b828210615561575050505090565b81516001600160a01b0381168103610906578152908301908301615553565b9060208282031261090657815167ffffffffffffffff8111610906576148b2920161550f565b90670429d069189e0000918281029281840414901517156132ef57565b90612710918281029281840414901517156132ef57565b818102929181159184041417156132ef57565b8181106155f8575050565b5f81556001016155ed565b908082519081815260208091019281808460051b8301019501935f915b8483106156305750505050505090565b90919286601f198383979899030184528751908280835192838152019201905f905b8082106156715750505090806001929801930193019194939290615620565b919380600192946001600160a01b038751168152019401920187939291615652565b90808251908181526020809101926020808460051b8301019501935f915b8483106156c15750505050505090565b90919293949584806156df83601f1986600196030187528a516146ac565b98019301930191949392906156b1565b90633b9aca00918281029281840514901517156132ef57565b6157d36040519161571883614764565b600883526101003660208501376157318160e01d6156ef565b61573a84614c79565b52600361574b8260c01d820b6156ef565b61575485614c86565b526157638260a01d820b6156ef565b61576c85614c96565b5261577b8260801d820b6156ef565b61578485614ca6565b526157938260601d820b6156ef565b61579c85614cb6565b526157ab8260401d820b6156ef565b6157b485614cc6565b526157c38260201d820b6156ef565b6157cc85614cd6565b520b6156ef565b6157dc82614ce6565b5290565b808360048210615825575050600319908181019081116132ef57926008549181019081116132ef576148b2936151c661581c6151b79394615708565b93820184614d18565b6148b2949250600410615845575b6151b7906151c661581c600754615708565b60049150615833565b6001600160a01b037f000000000000000000000000000000000000000000000000000000000000000016330361588057565b7f089676d5000000000000000000000000000000000000000000000000000000005f523360045260245ffd5b6001600160a01b037f0000000000000000000000000000000000000000000000000000000000000000163014806159ae575b15615907577f000000000000000000000000000000000000000000000000000000000000000090565b60405160208101907f8b73c3c69bb8fe3d512ecc4cf759cc79239f7b179b0ffacaa9a75d522b39400f82527f000000000000000000000000000000000000000000000000000000000000000060408201527f000000000000000000000000000000000000000000000000000000000000000060608201524660808201523060a082015260a0815260c0810181811067ffffffffffffffff821117610d145760405251902090565b507f000000000000000000000000000000000000000000000000000000000000000046146158de565b8115612623570490565b7f0000000000000000000000000000000000000000000000000000000000000000615a0b81614c48565b9064ffffffffff80421681600a54818160281c1680421015615bfc575b5016900316615a38600754615708565b9180600482119384615bf3575b615a6484615a5283614c79565b51615a5d8585614d18565b51906165d5565b615a6d87614c79565b52615a8984615a7b83614c86565b51615a5d6001860185614d18565b615a9287614c86565b526002831115615beb57615ab784615aa983614c96565b51615a5d6002860185614d18565b615ac087614c96565b526003831115615beb57615ae791615a5d826003615ade8895614ca6565b51930190614d18565b615af085614ca6565b5260048114615be557615b04600854615708565b9215615be557615b2682615b1785614c79565b51615a5d600319850187614d18565b615b2f85614cb6565b526005811115615be557615b7382615b4685614c86565b51615a5d7ffffffffffffffffffffffffffffffffffffffffffffffffffffffffffffffffd850187614d18565b615b7c85614cc6565b526006811115615be557615bc082615b9385614c96565b51615a5d7ffffffffffffffffffffffffffffffffffffffffffffffffffffffffffffffffe850187614d18565b615bc985614cd6565b526007811115615be557615a5d835f19615ade6157d396614ca6565b50505090565b505050505090565b60049150615a45565b92505f615a28565b9081518082526020808093019301915f5b828110615c23575050505090565b835185529381019392810192600101615c15565b15615c3e57565b606460405162461bcd60e51b815260206004820152600460248201527f696e6974000000000000000000000000000000000000000000000000000000006044820152fd5b8015612623576ec097ce7bc90715b34b9f10000000000590565b8115612623570590565b15615cad57565b606460405162461bcd60e51b815260206004820152601260248201527f4f766572666c6f772f556e646572666c6f7700000000000000000000000000006044820152fd5b906060915f80915f9181516008906008811015615db4575b505015615d9d575b615d1c828251614a66565b615d2557505050565b909360e0939293925f5b8351871015615d8957601f1960019163ffffffff633b9aca00615d528b89614d18565b5105637fffffff81131580615d7a575b615d6b90615ca6565b16871b17950196019593615d2f565b50637fffffff19811215615d62565b935093909450615d9a915084614d18565b52565b9350615dae60018260031c01614c48565b93615d11565b809197508492505b878110156160dc575b50146160d35760018260031c015b615ddc81614c48565b955f5b84811015615d095781633b9aca009182615df98288614d18565b51056101405263ffffffff60019380615e148685018a614d18565b51056101205280615e28600285018a614d18565b51056101005280615e3c600385018a614d18565b510560e05280615e4f600485018a614d18565b510560c05280615e62600585018a614d18565b510560a05280615e75600685018a614d18565b5105608052615e876007840189614d18565b5105637fffffff610140511315806160c1575b806160b0575b8061609e575b8061608d575b8061607b575b8061606b575b8061605a575b8061604a575b80616039575b80616029575b80616018575b80616008575b80615ff7575b80615fe9575b80615fda575b615ef790615ca6565b1667ffffffff0000000060805160201b166bffffffff000000000000000060a05160401b166fffffffff00000000000000000000000060c05160601b1673ffffffff0000000000000000000000000000000060e05160801b1677ffffffff00000000000000000000000000000000000000006101005160a01b167bffffffff0000000000000000000000000000000000000000000000006101205160c01b167fffffffff000000000000000000000000000000000000000000000000000000006101405160e01b1617171717171717615fd0898c614d18565b5201950194615ddf565b50637fffffff19811215615eee565b50637fffffff811315615ee8565b50637fffffff196080511215615ee2565b50637fffffff6080511315615edc565b50637fffffff1960a0511215615ed6565b50637fffffff60a0511315615ed0565b50637fffffff1960c0511215615eca565b50637fffffff60c0511315615ec4565b50637fffffff1960e0511215615ebe565b50637fffffff60e0511315615eb8565b50637fffffff19610100511215615eb2565b50637fffffff610100511315615eac565b50637fffffff19610120511215615ea6565b50637fffffff610120511315615ea0565b50637fffffff19610140511215615e9a565b8160031c615dd3565b90915060078116156160f3575f1901908391615dbc565b925082905f615dc5565b90815160019060011c6040805190616114826146fc565b600282525f5b81811061628a575050809460405161613181614764565b60088152610100908136602083013761614984614c79565b5261615383614c79565b505f855b616220575b506040519061616a82614764565b6008825236602083013761617d83614c86565b5261618782614c86565b506003198301908382116132ef575f5b8281106161a657505050505050565b60048082019081831161620d5750906161e86161e287846161c88b9688614d18565b516161dc866161d68c614c86565b51614d18565b52614d2c565b84614d18565b516162066161f587614c86565b516162008785614d2c565b90614d18565b5201616197565b601190634e487b7160e01b5f525260245ffd5b600480821015616284576162348285614d18565b51616242836161d688614c79565b526162566162508784614d2c565b85614d18565b519061626186614c79565b518184019182851161620d57509161627c8994928594614d18565b520190616157565b5061615c565b80606060208093860101520161611a565b90670de0b6b3a7640000908181036162b257505090565b671bc16d674ec8000081036162cd575050806148b291616326565b673782dace9d90000081036162f15750506162eb816148b292616326565b80616326565b6162fb91926167a7565b906001616307836155c3565b915f198301040190151502600181018091116132ef576148b291614d2c565b90616330916155da565b6001670de0b6b3a76400005f19830104019015150290565b60ff811461639c5760ff811690601f8211616374576040519161636a83614748565b8252602082015290565b7fb3512b0c000000000000000000000000000000000000000000000000000000005f5260045ffd5b506040515f815f54916163ae83614a73565b8083529260209060019081811690811561643757506001146163d9575b50506148b292500382614781565b9150925f80527f290decd9548b62a8d60345a988386fc84ba6bc95484008f6362f93160ef3e563935f925b82841061641f57506148b29450505081016020015f806163cb565b85548785018301529485019486945092810192616404565b9050602093506148b29592507fffffffffffffffffffffffffffffffffffffffffffffffffffffffffffffff0091501682840152151560051b8201015f806163cb565b60ff811461649c5760ff811690601f8211616374576040519161636a83614748565b506040515f816001916001546164b181614a73565b808452936020916001811690811561643757506001146164d95750506148b292500382614781565b91509260015f527fb10e2d527612073b26eecdfd717e6a320cf44b4afac2b0732d9fcbe2b7fa0cf6935f925b82841061652057506148b29450505081016020015f806163cb565b85548785018301529485019486945092810192616505565b670de0b6b3a76400009180830361654f5750905090565b8290671bc16d674ec8000081036165705750508061656c916155da565b0490565b673782dace9d9000008103616594575061658d8261656c936155da565b04806155da565b905061659f916167a7565b6165a8816155c3565b60015f199384830104019015150290600182018083116132ef578110156165d0575050505f90565b030190565b90670de0b6b3a764000090818102908082058314811517156132ef575f121561660c576148b293616605916155da565b0490614d2c565b7f800000000000000000000000000000000000000000000000000000000000000081146132ef576148b293616642915f036155da565b0490614a66565b91907f7fffffffffffffffffffffffffffffff5d576e7357a4501ddfe92f46681b20a084116166c0579160209360809260ff5f9560405194855216868401526040830152606082015282805260015afa156121e3575f516001600160a01b038116156166b657905f905f90565b505f906001905f90565b5050505f9160039190565b600481101561492e57806166dd575050565b6001810361670d577ff645eedf000000000000000000000000000000000000000000000000000000005f5260045ffd5b6002810361674157507ffce698f7000000000000000000000000000000000000000000000000000000005f5260045260245ffd5b60031461674b5750565b7fd78bce0c000000000000000000000000000000000000000000000000000000005f5260045260245ffd5b908015613d9857670de0b6b3a7640000918281029281840414901517156132ef576001905f19830104019015150290565b9080156170d05781156170ca578160ff1c6170a257770bce5086492111aea88f4bb1ca6bcf584181ea8059f7653281101561707a5781670c7d713b49da00001280617069575b15616d0657670de0b6b3a7640000916ec097ce7bc90715b34b9f100000000090616840908402828101907fffffffffffffffffffffffffffffffffff3f68318436f8ea4cb460f000000000018302615c9c565b9080828002059181838202058284820205838582020591848684020593858786020595808888020597880205600f900596600d900595600b900594600990059360079005926005900591600390050101010101010160011b918082818507020592050201670de0b6b3a7640000905b057ffffffffffffffffffffffffffffffffffffffffffffffffdc702bd3a30fc00008181131580616cf3575b15616ccb57819082121580616cb8575b15616c90575f915f8112616c81575b506064906806f05b59d3b20000008112616c1e577ffffffffffffffffffffffffffffffffffffffffffffffff90fa4a62c4e0000000168056bc75e2d6310000082770195e54c5dd42177f53a27172fa9ec630262827000000000925b02819068ad78ebc5ac62000000811215616be5575b6856bc75e2d631000000811215616bab575b682b5e3af16b18800000811215616b73575b6815af1d78b58c400000811215616b3b575b680ad78ebc5ac6200000811215616b04575b82811215616acd575b6802b5e3af16b1880000811215616a96575b68015af1d78b58c40000811215616a5f575b60028382800205056003848383020505600485848302050585600581868402050560068287830205056007838883020505906008848984020505926009858a8602050595600a868b8902050597600b878c8b02050599600c888d8d0205059b01010101010101010101010102050205905f146148b2576148b290615c82565b6806f5f17757889379377ffffffffffffffffffffffffffffffffffffffffffffffffea50e2874a73c0000849201920205906169e0565b6808f00f760a4b2db55d7ffffffffffffffffffffffffffffffffffffffffffffffffd4a1c50e94e780000849201920205906169ce565b680ebc5fb417461211107ffffffffffffffffffffffffffffffffffffffffffffffffa9438a1d29cf00000849201920205906169bc565b68280e60114edb805d037ffffffffffffffffffffffffffffffffffffffffffffffff5287143a539e00000849201920205906169b3565b690127fa27722cc06cc5e27fffffffffffffffffffffffffffffffffffffffffffffffea50e2874a73c00000849201920205906169a1565b693f1fce3da636ea5cf8507fffffffffffffffffffffffffffffffffffffffffffffffd4a1c50e94e78000008492019202059061698f565b6b02df0ab5a80a22c61ab5a7007fffffffffffffffffffffffffffffffffffffffffffffffa9438a1d29cf0000008492019202059061697d565b6e01855144814a7ff805980ff008400091507fffffffffffffffffffffffffffffffffffffffffffffff5287143a539e0000000161696b565b6803782dace9d90000008112616c6e577ffffffffffffffffffffffffffffffffffffffffffffffffc87d25316270000000168056bc75e2d63100000826b1425982cf597cd205cef738092616956565b68056bc75e2d6310000082600192616956565b600192505f03905060646168fa565b7fd4794efd000000000000000000000000000000000000000000000000000000005f5260045ffd5b5068070c1cc73b00c800008213156168eb565b7fa2f9f7e3000000000000000000000000000000000000000000000000000000005f5260045ffd5b5068070c1cc73b00c800008213156168db565b81670de0b6b3a7640000925f91848112617053575b506064905f7e1600ef3172e58d2e933ec884fde10064c63b5372d805e203c0000000000000821215617028575b73011798004d755d3c8bc8e03204cf44619e000000821215617007575b820290808302906e01855144814a7ff805980ff00840009081831215616fe4575b50506b02df0ab5a80a22c61ab5a70080821215616fc4575b50693f1fce3da636ea5cf85080821215616fa4575b50690127fa27722cc06cc5e280821215616f84575b5068280e60114edb805d0380821215616f64575b50680ebc5fb4174612111080821215616f4d575b506808f00f760a4b2db55d80821215616f2d575b506806f5f177578893793780821215616f0d575b506806248f33704b28660380821215616eee575b506805c548670b9510e7ac80821215616ecf575b50616e7c68056bc75e2d6310000091827ffffffffffffffffffffffffffffffffffffffffffffffffa9438a1d29cf00000818301920102615c9c565b9080828002059181838202058284820205916003600560076009600b888a89020598808b8b02059a8b0205059805960594059205010101010160011b0105905f14616eca575f035b026168af565b616ec4565b68056bc75e2d631000006756bc75e2d63100009202059101905f616e40565b68056bc75e2d6310000067ad78ebc5ac6200009202059101905f616e2c565b68056bc75e2d6310000068015af1d78b58c400009202059101905f616e18565b68056bc75e2d631000006802b5e3af16b18800009202059101905f616e04565b68056bc75e2d63100000809202059101905f616df0565b68056bc75e2d63100000680ad78ebc5ac62000009202059101905f616ddc565b68056bc75e2d631000006815af1d78b58c4000009202059101905f616dc8565b68056bc75e2d63100000682b5e3af16b188000009202059101905f616db3565b68056bc75e2d631000006856bc75e2d6310000009202059101905f616d9e565b68ad78ebc5ac62000000925069021e19e0c9bab240000002059101905f80616d86565b906b1425982cf597cd205cef73806803782dace9d900000091059101616d65565b50770195e54c5dd42177f53a27172fa9ec63026282700000000090056806f05b59d3b2000000616d48565b905061705f9150615c82565b6001906064616d1b565b50670f43fc2c04ee000082126167ed565b7fd8317311000000000000000000000000000000000000000000000000000000005f5260045ffd5b7f022701e0000000000000000000000000000000000000000000000000000000005f5260045ffd5b50505f90565b5050670de0b6b3a76400009056fea264697066735822122035634f0716db34ea6ab2cfff3be09bc243dc7f389f6aee640ad2f0da7eaa83a264736f6c634300081a0033",
  "linkReferences": {},
  "deployedLinkReferences": {}
}